:020000040800F2
:10000000002B002011020008A10D0008650C00085B
:10001000790D0008050900085F19000800000000BC
:100020000000000000000000000000004D14000867
:10003000550A000800000000DF12000869160008D9
:100040002B0200082B0200082B0200082B020008DC
:100050002B0200082B0200082B0200082B020008CC
:100060002B0200082B0200082B0200082B020008BC
:100070002B0200082B0200082B0200082B020008AC
:100080002B0200082B0200082B0200082B0200089C
:100090002B0200082B0200082B0200082B0200088C
:1000A0002B0200082B0200082B0200082B0200087C
:1000B0002B0200082B0200082B0200082B0200086C
:1000C0002B0200082B0200082B0200082B0200085C
:1000D0002B0200082B020008CD1600082B02000896
:1000E0002B0200082B0200082B0200082B0200083C
:1000F0002B0200082B0200082B0200082B0200082C
:100100002B0200082B0200082B0200082B0200081B
:100110002B0200082B0200082B0200082B0200080B
:100120002B0200082B0200082B0200082B020008FB
:1001300000F002F800F05CF80AA090E8000C82449D
:100140008344AAF10107DA4501D100F051F8AFF27A
:10015000090EBAE80F0013F0010F18BFFB1A43F0A5
:10016000010318477C6500009C6500000A444FF0BD
:10017000000C10F8013B13F0070408BF10F8014B06
:100180001D1108BF10F8015B641E05D010F8016B4B
:10019000641E01F8016BF9D113F0080F1EBF10F8AF
:1001A000014BAD1C0C1B09D16D1E58BF01F801CBD2
:1001B000FAD505E014F8016B01F8016B6D1EF9D555
:1001C0009142D6D37047000000230024002500266A
:1001D000103A28BF78C1FBD8520728BF30C148BFAA
:1001E0000B607047002070471FB51FBD10B510BDD4
:1001F00000F0B4F81146FFF7F7FF04F03DFD00F002
:10020000D2F803B4FFF7F2FF03BC04F0B7FC000020
:100210000948804709480047FEE7FEE7FEE7FEE79A
:10022000FEE7FEE7FEE7FEE7FEE7FEE704480549D6
:10023000054A064B704700006D16000831010008A2
:1002400000250020002B0020002700200027002090
:10025000704700000FB4044910B503AA029800F0DB
:1002600067F810BC5DF814FB180000202DE9F04180
:100270000E460446002020622046E168884730B3DD
:10028000252805D0D4E901219047206A401CF2E7D7
:10029000E168204600278847050018D0A5F14100F5
:1002A000192802D820354FF40067324629462046E7
:1002B0002760FFF797FF40B1012804D0F61D26F014
:1002C00007060836D8E7361DD6E72846DAE7206A5B
:1002D000BDE8F08130B505460B462A4613F8014BC0
:1002E00012F8010B08B1A042F8D01CB1002802D0CE
:1002F0006D1CF1E7284630BD704770477047704766
:1003000001694A1C02610878704700B58FB0CDE9D9
:1003100001310021059105497944CDE903101146C9
:100320006846FFF7A3FF0FB000BD0000E5FFFFFF29
:10033000074B70B50D467B44FFF7E7FF04462846A0
:1003400000F008F810B14FF0FF3070BD204670BDCE
:1003500023490000007B00F080007047754600F0E4
:100360002BF8AE4605006946534620F00700854647
:1003700018B020B5FFF75AFFBDE820404FF0000647
:100380004FF000074FF000084FF0000B21F007017D
:10039000AC46ACE8C009ACE8C009ACE8C009ACE8C0
:1003A000C0098D46704710B50446AFF30080204663
:1003B000BDE81040FFF725BF004870479C2400208F
:1003C00021B1826842F00102826003E0826822F07B
:1003D000010282607047000010B504461248844252
:1003E00008D10121401500F0B7FF0021601500F091
:1003F000B3FF17E00D48844208D10121001500F039
:10040000ABFF0021201500F0A7FF0BE00848844255
:1004100008D10121C80300F09FFF00214FF40040E4
:1004200000F09AFF10BD00000024014000280140A8
:10043000003C0140014600208A6802F004020AB133
:10044000012000E000207047014600208A6802F089
:1004500008020AB1012000E00020704730B50246D2
:100460000020002350680F4C20400D790C6844EAAE
:1004700005242043506090680B4C2040D1E9025481
:100480002C434D7944EA450420439060D06A20F41F
:1004900070000C7C641EE4B2234340EA0350D06237
:1004A00030BD0000FFFEF0FFFDF7F1FF816841F075
:1004B00008018160704721B1826842F4A002826025
:1004C00003E0826822F4A00282607047816841F0F4
:1004D000040181607047000070B5002400201549B8
:1004E000088015A0FFF7B6FE4FF4617004F06AFBB8
:1004F00014A11748FFF7EEFE054618E0601CC4B2D1
:1005000000200C4908800CA0FFF7A4FE4FF41670E1
:1005100004F058FB0BA10E48FFF7DCFE05466420F3
:1005200094FBF0F100FB114008B900F027FC002D0E
:10053000E4D070BD1E00002041542B434741545469
:100540003F0D0A002B43474154543A20310000002C
:10055000DC17002070B5002400201749088017A080
:10056000FFF778FE4FF4FA7004F02CFB16A0FFF7AB
:1005700071FE19A11B48FFF7ADFE054618E0601C8F
:10058000C4B200200C4908800FA0FFF763FE4FF4AF
:10059000FA7004F017FB10A11248FFF79BFE054606
:1005A000642094FBF0F100FB114008B900F0E6FB79
:1005B000002DE4D070BD00001E00002041542B51DE
:1005C000434349440D0A000041542B4347504144E2
:1005D00044523F0D0A0000002B434750414444520F
:1005E0003A203100DC17002070B5002400201D499E
:1005F00008801DA0FFF72EFE4FF4FA7004F0E2FA17
:100600004FF4FA7004F0DEFA4FF4FA7004F0DAFAFC
:1006100017A0FFF71FFE4FF42F7004F0D3FA4FF42A
:10062000FA7004F0CFFA15A11548FFF753FE0546FE
:1006300015E0601CC4B20EA0FFF70CFE4FF4FA7078
:1006400004F0C0FA0DA10E48FFF744FE05466420F1
:1006500094FBF0F100FB114008B900F08FFB002D76
:10066000E7D070BD1E000020415445310D0A000046
:1006700041542B43494D490D0A00000034363000E7
:10068000DC17002070B5002414A0FFF7E3FD4FF441
:10069000967004F097FA15A11548FFF71BFE054662
:1006A00018E0601CC4B20020124908800BA0FFF7BC
:1006B000D1FD4FF4967004F085FA0CA10C48FFF7B9
:1006C00009FE0546642094FBF0F100FB114008B9D7
:1006D00000F054FB002DE4D070BD000041542B43CA
:1006E00050534D533D300D0A000000004F4B0000A9
:1006F000DC1700201E00002008B50121082000F0B2
:100700001BFE4FF48040ADF8000003208DF802007E
:1007100010208DF8030069460A4800F0A8F94FF44C
:100720008041084800F09AFA4FF40040ADF800000C
:100730006946044800F09BF94FF40041014800F07D
:100740008FFA08BD000C014070B5002400F0A2F83B
:10075000FFF798FFFFF748FF00F062F8FFF7BCFED5
:10076000FFF7F8FE00201949088019A0FFF772FD75
:100770004FF4FA7004F026FA1AA0FFF76BFD4FF45D
:10078000FA7004F01FFA21A12448FFF7A3FD0546E3
:1007900018E0601CC4B200200C49088011A0FFF7CB
:1007A00059FD4FF47A7004F00DFA18A11B48FFF7B9
:1007B00091FD0546642094FBF0F100FB114008B95F
:1007C00000F0DCFA002DE4D0002070BD1E000020F7
:1007D00041542B4E4346473D302C38363430300D93
:1007E0000A00000041542B4E4344504F50454E3DAB
:1007F000223232312E3232392E3231342E323032F0
:10080000222C353638330D0A000000002B514C578E
:10081000455654494E443A2033000000DC1700206E
:1008200070B5002400201549088015A0FFF712FDBF
:100830004FF4FA7004F0C6F914A11548FFF74AFD09
:10084000054618E0601CC4B200200C4908800CA0CA
:10085000FFF700FD4FF4FA7004F0B4F90BA10C4857
:10086000FFF738FD0546642094FBF0F100FB1140D2
:1008700008B900F083FA002DE4D070BD1E000020FE
:1008800041542B4E4E4D493D310D0A004F4B000057
:10089000DC17002070B5002413A0FFF7DBFC6420F8
:1008A00004F090F914A11548FFF714FD054617E070
:1008B000601CC4B20020124908800BA0FFF7CAFCDC
:1008C000C82004F07FF90CA10C48FFF703FD054692
:1008D000642094FBF0F100FB114008B900F04EFADF
:1008E000002DE5D070BD000041542B5153434C4BBB
:1008F0003D300D0A000000004F4B0000DC170020C7
:100900001E00002000BFFEE73EB503460C46002057
:1009100017A52D68029517A52D68019516A52D68B8
:10092000009501251570012C02D0022C04D101E0A4
:10093000002103E0012101E0022100BF00BF032BE1
:1009400008D0042B02D0082B0CD107E002AD6D5C5F
:1009500015700AE001AD6D5C157006E01DF80150E0
:10096000157002E06FF0070000BF00BF3EBD000041
:1009700002010300070608002425260010B51648CA
:10098000006820F00F00144908600846006840F035
:100990000800086004E0601CC4B2012004F038F9CB
:1009A0000E48006808B1642CF5DB642C01DB0120E3
:1009B00010BD002404E0601CC4B2012004F028F93A
:1009C0000648006808B9642CF5DB642C01DB0120C3
:1009D000EEE70020ECE700000008014000012142A2
:1009E00010B50C48006820F00F000A49086008465E
:1009F000006840F0030008600020074908601420E8
:100A000004F0E0F801200549C1F880011E2004F03F
:100A1000FFF810BD00080140800121420000214282
:100A200008B50121042000F087FC0120ADF800008A
:100A300003208DF8020010208DF803006946044859
:100A400000F015F8FFF7CCFFFFF798FF08BD000096
:100A500000080140704707E0072101E04A1E91B2FB
:100A60000029FBD1421E90B20028F5D170472DE934
:100A7000F041024600250026002000230024002724
:100A800091F803C00CF00F0591F803C00CF0100CA6
:100A9000BCF1000F03D091F802C04CEA050591F8B3
:100AA00000C0BCF1000F31D0146800202BE04FF0E3
:100AB000010C0CFA00F3B1F800C00CEA03069E42E8
:100AC00020D183004FF00F0C0CFA03F7BC4305FA5A
:100AD00003FC4CEA040491F803C0BCF1280F06D1D2
:100AE0004FF0010C0CFA00FCC2F814C00AE091F8B7
:100AF00003C0BCF1480F05D14FF0010C0CFA00FC0B
:100B0000C2F810C0401C0828D1D31460B1F800C04E
:100B1000BCF1FF0F34DD546800202EE000F1080C1A
:100B20004FF0010808FA0CF3B1F800C00CEA030614
:100B30009E4221D183004FF00F0C0CFA03F7BC4307
:100B400005FA03FC4CEA040491F803C0BCF1280F39
:100B500005D100F1080C08FA0CF8C2F8148091F8DD
:100B600003C0BCF1480F07D100F1080C4FF0010899
:100B700008FA0CF8C2F81080401C0828CED3546044
:100B8000BDE8F08108B50121082000F0D5FB012166
:100B9000042000F0D1FB40F20240ADF8000010202C
:100BA0008DF8030003208DF8020069460548FFF721
:100BB0005EFF4FF48870ADF8000069460248FFF709
:100BC00056FF08BD000C014000080140F0B50A4680
:100BD000002300240021002500F00046B6F1004F5C
:100BE00002D11D4EF16901E01B4E7168C0F303454F
:100BF00083B200F44016B6F5401F08D121F07061B1
:100C0000154E766826F07066134F7E6012E000F491
:100C10008016B6F5801F06D1032606FA05F4A14317
:100C200041F0706106E0460D360103FA06F6B14365
:100C300041F0706122B1460D360103FA06F63143E8
:100C400000F00046B6F1004F02D1034EF16101E021
:100C5000014E7160F0BD000000000140416170472D
:100C60000161704700BFFEE710B54FF4805109489D
:100C7000FFF7F6FF4FF400510648FFF7F1FF4FF47E
:100C800080510448FFF7EAFF4FF400510148FFF795
:100C9000E5FF10BD000C014010B54FF400510748AE
:100CA000FFF7DEFF4FF480510448FFF7D7FF4FF402
:100CB00080510248FFF7D4FF10BD0000000C014036
:100CC00010B54FF400510448FFF7CAFF4FF400512C
:100CD0000148FFF7C3FF10BD000C014000B587B00D
:100CE000012140F2052000F027FB4FF4004000F006
:100CF000F7FA00208DF81B000220ADF81800032041
:100D00008DF81A0006A91A48FFF7B1FE1948FFF737
:100D100063FB00208DF8090004904FF460200390DD
:100D20000020019001208DF8140000208DF80800AB
:100D300001A91048FFF792FB01210E48FFF740FB85
:100D40000C48FFF7B3FB00BF0A48FFF77DFB002804
:100D5000FAD10848FFF7BAFB00BF0648FFF76AFB65
:100D60000028FAD101210348FFF7A5FB07B000BD19
:100D7000000801400024014000BFFEE710B501203B
:100D8000054908604FF4966003F01CFF00200349FA
:100D9000C1F8BC0110BD0000BC812142008021428D
:100DA0007047000070B5002100230F22C47804B3FF
:100DB000154C246804F4E064C4F5E064210AC1F130
:100DC0000403CA40447804FA03F1847814402143B0
:100DD00009010E4C0678A155047804F01F05012482
:100DE000AC4005786D11AD0005F1E025C5F8004176
:100DF00009E0047804F01F050124AC40044D067896
:100E0000761145F8264070BD0CED00E000E400E0EE
:100E100080E100E002490143024A1160704700008E
:100E20000000FA050CED00E070B500240CE0002590
:100E300006E00020074901EBC5010855681CC5B252
:100E4000802DF6DB601CC4B2082CF0DB00F0E2F869
:100E500070BD0000A418002070B50B46CE1701EB42
:100E60005676C6F3C702CE1701EB5676F610A1EB05
:100E7000C606F4B20123A340DDB20E4B03EBC00360
:100E80009B5CDB430B4E06EBC006B354094B03EBF4
:100E9000C0039B5C2B43074E06EBC006B354054BC7
:100EA00003EBC0039B5CDB43024E06EBC006B3546E
:100EB00070BD0000A418002070B50A46CE1701EBE3
:100EC0005676C6F3C703CE1701EB5676F610A1EBA4
:100ED000C606F4B20122A240D5B2054A02EBC00216
:100EE000D25C2A43024E06EBC006F25470BD0000ED
:100EF000A418002008B50121082000F01DFA4FF4C5
:100F00004050ADF8000010208DF8030003208DF84C
:100F1000020069463E48FFF7AAFD4FF440513C48A5
:100F2000FFF79EFE322003F04DFE0021AE2000F0C0
:100F3000BAF90021084600F0B6F90021102000F0AF
:100F4000B2F90021402000F0AEF90021812000F02C
:100F5000AAF90021CF2000F0A6F90021A12000F07D
:100F6000A2F90021C82000F09EF90021A62000F07F
:100F70009AF90021A82000F096F900213F2000F006
:100F800092F90021D32000F08EF90021084600F0EC
:100F90008AF90021D52000F086F90021802000F098
:100FA00082F90021D92000F07EF90021F12000F023
:100FB0007AF90021DA2000F076F90021122000F001
:100FC00072F90021DB2000F06EF90021402000F0D2
:100FD0006AF90021202000F066F90021022000F0CB
:100FE00062F900218D2000F05EF90021142000F04C
:100FF0005AF90021A42000F056F90021A62000F0A3
:1010000052F90021AF2000F04EF9FFF70DFF08BDA7
:10101000000C014070B500241CE004F1B001C8B21E
:10102000002100F040F90021084600F03CF90021C1
:10103000102000F038F9002508E0084901EBC5014F
:10104000085D012100F02FF9681CC5B2802DF4DB8A
:10105000601CC4B2082CE0DB70BD0000A4180020A6
:101060002DE9FF4F81B080460E461C460096204673
:10107000E31704EB5373DB1021464FEAE47C04EBE7
:101080005C7C4FEAEC0CA4EBCC0CBCF1000F02D062
:101090004FF0010C01E04FF0000C6344224604EBDA
:1010A000D27C4FEA6C0C03FB0CF303F0FF0B0398AC
:1010B0002038C7B2002547E00C2C07D107EB4700CA
:1010C000234901EB800010F805A014E0102C05D195
:1010D000204800EB071010F805A00CE0182C07D1F1
:1010E00007EBC7001C4901EB800010F805A002E0E7
:1010F00005B0BDE8F08F4FF000091FE00AF0800056
:1011000020B131464046FFF7D7FE03E03146404666
:10111000FFF7A2FE4FEA4A604FEA106A701CC6B29F
:101120000098301AA04205D1009E08F1010000F09D
:10113000FF0806E009F1010000F0FF09B9F1080F0E
:10114000DCDB00BF681CC5B25D45B5DB00BFCFE787
:10115000204F000894530008845900082DE9FF4FE0
:101160000746884691461C464FF0000B0297CDF883
:1011700004802046E11704EB5171C1F3C7010091CF
:1011800060E009FB04F0C11700EB51710BEBE101CA
:10119000CEB20BF1010000F0FF0B002550E0102C47
:1011A00005D12C4800EB0610405D03901BE0182C85
:1011B00007D106EB4600284901EBC000405D0390D3
:1011C00011E0202C05D1254800EBC610405D0390AE
:1011D00009E0402C05D1224800EB4620405D0390F9
:1011E00001E0BDE8FF8F4FF0000A17E0039800F020
:1011F000010020B141463846FFF75EFE03E041465C
:101200003846FFF729FE03984010039008F10100CB
:1012100000F0FF080AF1010000F0FF0ABAF1080F20
:10122000E4DB781CC7B20298381AA04204D1029FAE
:1012300001980830C0B20190DDF80480681CC5B286
:10124000A542ACDB0098411EC9B20091002898D19C
:1012500000BFC6E740000020C0010020D8040020E5
:10126000D8060020F0B506460F4614461D4613E08A
:1012700022782B4639463046FFF7F2FE284605EB2A
:10128000D07106EB6101CEB2C5F18000B04202DA46
:101290000026B81CC7B2641C2078202802DB207806
:1012A0007E28E5DDF0BD70B505460C46FFF7DCFC99
:1012B000782000F0CDF8FFF703FD1CB1402000F0CE
:1012C000C7F802E0002000F0C3F8FFF7F9FC284659
:1012D00000F0BEF8FFF7F4FCFFF7DEFC70BD7047CE
:1012E00001460020034A506820F440400843506003
:1012F000704700000010024029B1064AD26902433B
:10130000044BDA6104E0034AD2698243014BDA619B
:10131000704700000010024029B1064A12690243DA
:10132000044B1A6104E0034A12698243014B1A61BB
:10133000704700000010024029B1064A926902433A
:10134000044B9A6104E0034A92698243014B9A611B
:10135000704700000010024029B1064AD2680243DB
:10136000044BDA6004E0034AD2688243014BDA603E
:10137000704700000010024030B500210022002418
:1013800000232D4D6D6805F00C0121B1042905D015
:10139000082923D105E0294D056022E0274D05608D
:1013A0001FE0254D6D6805F47012234D6D6805F43E
:1013B0008034022505EB92421CB9214D554305604E
:1013C0000BE01D4D6D6805F400351DB11C4D5543F6
:1013D000056002E0194D5543056002E0174D0560B8
:1013E00000BF00BF144D6D6805F0F0010909154DEF
:1013F0006B5C0568DD4045600F4D6D6805F4E0618C
:10140000090A104D6B5C4568DD4085600A4D6D68CA
:1014100005F46051C90A0B4D6B5C4568DD40C56041
:10142000054D6D6805F44041890B074D6B5CC5683F
:10143000B5FBF3F5056130BD0010024000127A00E3
:1014400000093D000000002010000020704700004F
:1014500070B50446002520E04FF400511048FFF716
:10146000FDFB04F0800028B14FF480510C48FFF7D9
:10147000F7FB04E04FF480510948FFF7EFFB4FF40E
:1014800000510748FFF7ECFB4FF400510448FFF709
:10149000E5FB6006040E681CC5B2082DDCDB70BDE0
:1014A000000C01402DE9F04107460E4614464FF06E
:1014B000000816B1012E0ED106E0C4F38F3529467F
:1014C000384602F01AFE09E0C4F34F252946384693
:1014D00002F00BFE02E06FF0030800BF00BF4046C1
:1014E000BDE8F0812DE9F04389B006460C469046F0
:1014F00099460025032C01D0082C01D1402700E09B
:10150000202708AA41462046FFF7FEF905465DB9A7
:1015100004A805A906AB07AACDE900109DF8201084
:10152000304601F0A8F8054665B9DDE904108DE8FC
:101530000302BDF81C209DF820103046069B02F0E7
:10154000ABFE054605B9B7700DB986F87C43284651
:1015500009B0BDE8F08310B500F002F810BD00003E
:101560000CB50020019000903348006840F48030B2
:101570003149086000BF3048006800F40030009036
:101580000198401C0190009818B90198B0F5A06F1F
:10159000F1D12948006800F4003010B1012000901A
:1015A00001E0002000900098012843D12348006802
:1015B00040F01000214908600846006820F0030050
:1015C00008600846006840F0020008601A48406859
:1015D000194948600846406848600846406840F439
:1015E000806048600846406820F47C1048600846E7
:1015F000406840F4E81048600846006840F0807099
:10160000086000BF0C48006800F000700028F9D0A6
:101610000948406820F003000749486008464068D0
:1016200040F00200486000BF0348406800F00C0032
:101630000828F9D10CBD0000001002400020024033
:10164000042808D14FF0E021096941F004014FF06E
:10165000E022116107E04FF0E021096921F0040167
:101660004FF0E022116170477047000010B5134839
:10167000006840F0010011490860084640681049C0
:1016800008400E494860084600680E4908400B496A
:1016900008600846006820F480200860084640681A
:1016A00020F4FE0048604FF41F008860FFF753FFEE
:1016B0004FF000600449086010BD000000100240B7
:1016C0000000FFF8FFFFF6FE08ED00E010B540F265
:1016D00025510F4800F07EF8C0B10D4800F036F9F2
:1016E000C4B20C480088C0F30D000B490C540948E3
:1016F0000088401C0749088008460088C72801DD8B
:10170000002008802146054800F025F910BD0000A2
:10171000004400401E000020DC170020003801407B
:1017200021B1828942F40052828104E082894DF61F
:10173000FF731A408281704710B5044620488442E6
:1017400009D101218803FFF707FE00214FF48040F3
:10175000FFF702FE32E01B48844209D10121480410
:10176000FFF7DAFD00214FF40030FFF7D5FD25E04B
:101770001548844209D101218804FFF7CDFD0021DD
:101780004FF48020FFF7C8FD18E01048844209D1CB
:101790000121C804FFF7C0FD00214FF40020FFF72E
:1017A000BBFD0BE00A48844208D101210805FFF780
:1017B000B3FD00214FF48010FFF7AEFD10BD000017
:1017C000003801400044004000480040004C004008
:1017D0000050004070B50246002400230025002080
:1017E00040F66A16B14200D100BFC1F3421501F0C4
:1017F0001F03012606FA03F3012D02D19689334017
:1018000006E0022D02D1168A334001E0968A334069
:101810000C12012606FA04F41688344013B10CB1F8
:10182000012000E0002070BDF0B503460024002632
:101830000025002040F66A17B94200D100BF1846C3
:10184000C1F3421401F01F06012707FA06F5012C27
:1018500001D10C3004E0022C01D1103000E0143032
:101860001AB107682F43076002E00768AF430760BB
:10187000F0BD00002DE9F04786B005460E46002475
:10188000A24600BFA1460027B08900B100BF2F4685
:101890002C8A4CF6FF700440F08804432C82AC89FB
:1018A0004EF6F3100440B08831890843718908432B
:1018B0000443AC81AC8A4FF6FF400440B089044336
:1018C000AC8201A8FFF758FD1F48874202D1DDF81E
:1018D00010A001E0DDF80CA0A88900F4004040B1A0
:1018E0000AEBCA0000EB0A1031684900B0FBF1F8BE
:1018F00007E00AEBCA0000EB0A1031688900B0FB70
:10190000F1F86420B8FBF0F004012009642101FB28
:101910001089A88900F4004040B1322000EBC900D2
:10192000B0FBF1F000F00700044308E0322000EBC8
:1019300009106421B0FBF1F000F00F0004432C818A
:1019400006B0BDE8F08700000038014001468888F5
:10195000C0F308007047C1F308028280704700BFDF
:10196000FEE770B50646002424B90121304600F098
:101970003EFD04462CB9012086F87803082086F83D
:101980007C0300250AE034B901222946304600F0E4
:10199000CEF9044300E003E0681CC5B2022DF2DB7F
:1019A00000BF34B94FF490120021304600F0E3F943
:1019B000044634B94FF480420121304600F0DBF98F
:1019C0000446204670BDF8B505460C46002669461B
:1019D000284600F001FE0646009880014FF47A7117
:1019E000B0FBF1F00099081A009000982060304692
:1019F000F8BD2DE9F04786B007460D4600240020CB
:101A000005900490039002908246019028602CB9C2
:101A100005AA0521384600F066F804462CB904AA48
:101A20000621384600F05FF8044634B902AB03AA39
:101A300001A9384600F0B3FE0446002C4CD197F8BB
:101A40007C83B8F1030F18D0B8F1040F03D0B8F1BC
:101A5000080F3DD127E09DF81400012803D09DF820
:101A60001000012805D141F28831029800EB010AEB
:101A700002E0029800F57A7A2DE09DF81400012822
:101A800003D09DF81000012806D146F2E871022229
:101A9000029802FB001A05E045F26041022202981A
:101AA00002FB001A17E0F5266A4648F2360138466E
:101AB00000F0C1FE0098002803DDF521009800FB2E
:101AC000016606F6DC590221029801FB009A02E049
:101AD0006FF0070400BF00BF0CB9C5F800A0204696
:101AE00006B0BDE8F0872DE9F04104460D461646E4
:101AF000002732462946204600F022FE0746384697
:101B0000BDE8F08108B501210920FFF715FC01218E
:101B10000A48FFF75BF83820ADF8000010208DF878
:101B2000030003208DF8020069460548FEF79FFF79
:101B300030210348FFF794F808BD00000002300090
:101B4000000C01402DE9F04389B00746002424A091
:101B500000680190B94609F1420664B997F87C83A0
:101B600008A9384602F009FA044624B94146384625
:101B700000F0B8F9044604F11D0060BB02AB062278
:101B80002821384602F02FF9044634B9022301AA6D
:101B90001421384600F0AEFA04462CB99DF8040032
:101BA000F0719DF80500307204B906AD34B9062312
:101BB0002A460D21384600F09DFA04465CB9287883
:101BC000307068787070A878B070E878F070287914
:101BD000307168797071204609B0BDE8F08300006B
:101BE000050300002DE9F04104460D461646002786
:101BF00094F898033246294602F0D1F847B23846A5
:101C0000BDE8F0812DE9F04104460D461646002757
:101C100094F898033246294602F051F947B2384603
:101C2000BDE8F0812DE9F04104460E4617461D46F9
:101C30004FF00008ABB294F898033A46314602F0F0
:101C4000BEF84FFA80F84046BDE8F0812DE9F0413A
:101C500005460C460026274604EBD770C0F3470222
:101C60000121284600F026FA06463046BDE8F081FC
:101C70002DE9FF4706460D46002496F87C93012D7A
:101C800007D0022D05D0032D03D0201F04B0BDE8DE
:101C9000F08734B9012D01D0022D01D12F4600E08B
:101CA000032724B96946304600F0F4FE0446D6F80E
:101CB000148034B903AB02AA01A9304600F06FFDCD
:101CC000044634B943463A4649463046FFF70AFCD3
:101CD000044634B940F27E308755401C8755801E3B
:101CE000855544B9304601A90EC902F021FC0446CD
:101CF0000CB90398306124B96946304602F040FCC3
:101D000004462046C2E72DE9F04106460C4600276E
:101D10002546A8014FF47A71B0FBF1F0054429463D
:101D2000304602F0CDF907463846BDE8F0812DE98E
:101D3000F04105460C4616460027B846022C01DB4A
:101D40003F1F0DE016B94FF0000803E005F5627083
:101D500050F82480424621462846FFF7A3FB074659
:101D600037B90EB1012100E0002105F56170015580
:101D70003846BDE8F0812DE9F04105460C4616468F
:101D80000027022C01DB3F1F15E005F5617010F8FC
:101D90000480B8F1000F03D1001D40F824600AE070
:101DA000324621462846FFF77DFB07461FB905F559
:101DB000627040F824603846BDE8F0812DE9F04FAC
:101DC00087B006460D460024DFF81091444885424E
:101DD00000D9241F2CB906AA05213046FFF783FE3F
:101DE00004462CB905AA06213046FFF77CFE0446BE
:101DF00034B904AB03AA02A9304600F0D0FC044673
:101E0000002C63D196F87CB300274FF0010ABBF198
:101E1000030F14D0BBF1040F03D0BBF1080F36D170
:101E20001FE09DF81800012803D09DF81400012838
:101E300002D141F2883701E04FF47A772AE04FEA85
:101E400049099DF81800012803D09DF814000128C5
:101E500002D146F2E87701E045F260474FF0020A0E
:101E600018E04FEA49094FF0F50801AA48F2360197
:101E7000304600F0E0FC0198002803DDF5210198D0
:101E800000FB018808F6DC574FF0020A02E06FF011
:101E9000070400BF00BFBD4202D86FF0030401E099
:101EA000E81B049094B90498484502D96FF00304E4
:101EB00009E00498B0FBFAF00490304602A90EC97C
:101EC00002F036FB04460CB90498306114B94FF4A3
:101ED00060708551204607B0BDE8F08F706408003F
:101EE000809698002DE9F04107460C460025032610
:101EF0004FF47A73324621463846FFF7F3FA054627
:101F0000BDB940F27E30C655401CC655042C03D0E6
:101F1000032C01D0082C06D14AF228013846FFF7DD
:101F20004DFF054605E048F235213846FFF746FFEC
:101F300005462DB94FF47A713846FFF7E4FE0546A1
:101F40002846BDE8F0812DE9FC410446002594F8BF
:101F50007873042F14D007DC7FB1012F0ED0022F2D
:101F60000DD0032F12D106E0052F0AD0622F09D021
:101F7000632F0BD107E000250BE000BF00BF00BFBF
:101F800000BF00BF00BF6FF00D0502E06FF002055B
:101F900000BF00BFA678C5B9402E16D101A92046C2
:101FA000FFF727FD80464FF47A710198B0FBF1F0FE
:101FB000019069462046FFF706FD8046DDE90010E6
:101FC000001D814201D26FF003052DB90622314672
:101FD000204601F079F9054615B9042084F8780304
:101FE0002846BDE8FC8170B504460025032084F82E
:101FF00078031026A670032140F27F300155401E61
:102000000155401E015508212046FFF76BFF05468C
:10201000284670BD70B5044600254FF4FA7120467D
:1020200001F043FC0546284670BD70B505460C46D8
:10203000A0B202F0C7FD002070BD70B505460C4689
:10204000A0B2FEF708FD002070BD2DE9FF4F81B062
:102050000E4617469846DDE90EB90024A246002038
:102060000090002519E02CB96A4639460198FFF71F
:10207000B9FD04469DF8000000EA0B00404500D180
:10208000012544B93DB9B9F1000F04D04946019882
:10209000FFF7CBFF04460AF1010A1CB9B24501D291
:1020A000002DE0D015B90CB96FF00604204605B03C
:1020B000BDE8F08F2DE9F04104460D461646002795
:1020C00094F898033246294602F047FB47B2384657
:1020D000BDE8F0812DE9F04104460D461646002783
:1020E00094F898033246294602F058FB47B2384626
:1020F000BDE8F0812DE9F04104460E4617461D4625
:102100004FF00008ABB294F898033A46314602F01B
:1021100031FB4FFA80F84046BDE8F081F8B504463F
:102120000D46002694F89803A84201D10020F8BD7E
:102130006A4640F20F112046FFF764FD06460EB1D5
:102140003046F4E7BDF800004EF6CC21884210D1AD
:1021500029462046FFF77AFD06460EB13046E6E7EF
:1021600084F898536A4640F20F112046FFF74AFD63
:1021700006463046DBE7F0B504460D46002600274C
:10218000204600F0AEF906462946304600F0BAF87F
:1021900007463846F0BDF0B504460D460026002738
:1021A0002946204600F05BF80646304600F0E5F987
:1021B00007463846F0BD2DE9F04106460D4600BF02
:1021C00000BF00BF304600F00FF80746284600F079
:1021D0008FF9804607EBC7000402A40904FB08F44A
:1021E000A4092046BDE8F081014600204FF080425E
:1021F00092FBF1F070472DE9F04305460C460021B3
:102200008846002600278C4628014FF47A7990FBF7
:10221000F9F6002C01DA604207B2002A02DA5042D5
:102220000FFA80FC4FEA471909EB4C114FF47A7012
:1022300091FBF0F13144594301F110004FEAE0798C
:1022400000EBD9694FEA6911B1F5803F02DB4FF627
:10225000FF7801E01FFA81F84046BDE8F0830246AE
:102260000020130303EB5103B3FBF1F070472DE99A
:10227000FC5F82460F4690461E46DDE90CB4002006
:1022800001900090814600251EB96FF00E0001906C
:1022900035E0A1793046FFF78EFF00905046009957
:1022A000FFF7DDFF8146B9F1FF0F01D94FF0FF09BC
:1022B0008BF8079038460099FFF76DFF0546280A0E
:1022C0002070657040460099FFF765FF0546280AB3
:1022D00020716571617A3046FFF76DFF00903846D6
:1022E0000099FFF758FF0546280AA070E5704046A0
:1022F0000099FFF750FF0546280AE0712572019802
:10230000BDE8FC9FF0B503460C46002000BFA3FBD0
:1023100004152A464FF4006C11EB0C0142F1000247
:102320000D0B45EA02510846F0BD70B50446002683
:102330002546012140F2CB104155425D86212046C1
:10234000FFF7B8FE0646304670BD10B503460020C4
:1023500001245470002494708B244C744FF448442E
:102360001C8202249C7210BD10F8102F0A70427853
:102370004A7082788A70C278CA7002790A7142798A
:102380004A7182798A71C279CA71027A0A72427A72
:102390004A72827A8A72C27ACA72027B0A73427B5A
:1023A0004A73827B8A73C27BCA73027C0A74427C42
:1023B0004A74827C8A74C27CCA74027D0A75427D2A
:1023C0004A75827D8A75C27DCA75027E0A76427E12
:1023D0004A76827E8A76C27ECA76027F0A77427FFA
:1023E0004A77827F8A77C27F1038CA777047FEB5F6
:1023F00005460F4600262C466221284601F09EF82D
:1024000000202070012060700020A0700120E0708A
:1024100020714FF47A70A0604000E06043F2C82061
:102420002061642060614FF420602083002084F8E4
:10243000210040F2DB70A4F89C00284601F017F957
:10244000002F04DD1EB9284601F0EBFC064604F51A
:10245000887001F099F8064604F5907001F0A5F82F
:10246000064604F5967104F1420001F00EF90646A5
:1024700004F5A27001F075F8064604F1A40001F01D
:10248000A4F806462021284602F08FF8064666B9D1
:10249000D4E903126069CDE900120290228B6178C1
:1024A0002846A36801F0F8FE0646284601F04AF9DE
:1024B0003046FEBD7F280BDDC0F1FF0303F00703AC
:1024C00008330B70A0F18003C3F3C703137007E058
:1024D00000F007030B70C0F17F03C3F3C703137051
:1024E000704701460020CAB20B0A9A40501C704740
:1024F000014600204A1C5206100E7047031113704B
:1025000000F00F030B70704770B5044600250021E2
:10251000204601F0C3FD0546284670BD70B504464F
:1025200000250021204601F0A5FE0546284670BD85
:1025300070B5044600250121204601F0AFFD054697
:10254000284670BD70B5044600250121204601F0E3
:1025500091FE0546284670BD10B5072807DD80238B
:1025600003EBC103C0F10F042344137004E0C1F175
:102570000F0300EBC303137010BD10B5014600201C
:102580000022002361B14A1E02E052085C1CA3B283
:1025900022F0FF04002CF8D1144663F31F24A0B2EC
:1025A00010BD00EB01131370704770B586B006467E
:1025B0000D46002434B917236A460D213046FFF733
:1025C00031FB04462CB92A466946172000F079FAF7
:1025D0000446204606B070BD30B502460B460020CA
:1025E00011464FF42D74645A0CB96FF00E0040B9C7
:1025F0004FF4D67465584FF42D74645AB5FBF4F457
:102600001C6030BD2DE9FC4105460C464FF000082A
:102610002E46002001900090002796F82A0201AA79
:102620006946FFF747FF9DF8040020709DF8000001
:10263000607096F82B723811E07007F00F00A070F0
:102640004046BDE8FC8170B58EB006460D460024BC
:102650003CB9312301AA40F20F113046FFF7E2FAEC
:1026600004462CB92A4601A9312000F08FFA04460D
:1026700020460EB070BD2DE9F04106460F46DDE95B
:10268000064500203146072F2ED007DC072F51D2F8
:10269000DFE807F05013141516172900242F36D041
:1026A00006DC082F21D0112F0CD0122F42D11DE0B3
:1026B000252F2DD0262F3DD12BE000BF00BF00BF1E
:1026C00000BF00BFB1F8CAC0A2F800C0D1F8D0C0A6
:1026D000C3F800C0D1F8D8C0C4F800C0D1F8E4C035
:1026E000C5F800C029E000BF00BF00BFB1F8CCC0F2
:1026F000A2F800C0D1F8D4C0C3F800C0D1F8DCC043
:10270000C4F800C0D1F8E8C0C5F800C015E000BFAB
:1027100000BFB1F8CCC0A2F800C0D1F8D4C0C3F853
:1027200000C0D1F8E0C0C4F800C0D1F8ECC0C5F8D2
:1027300000C002E06FF0030000BF00BFBDE8F08101
:1027400070B5034600201D46012407290FDC00292F
:1027500002DD01268E40F4B240F2C516765D2640B9
:102760001670002905DD16780E41167001E06FF035
:10277000030070BDFEB506460D46002434B90B2398
:102780006A4601213046FFF74DFA04462CB92A4625
:1027900069460B2000F09BFA04462046FEBD2DE959
:1027A000F05F05460E46174698464FF0000A2C4645
:1027B000D346D1464FF4AF70005B08B96FF00E0AF4
:1027C000BAF1000F34D14FF4D172115D4FF4AF72F2
:1027D000105BFFF7F0FC834640F28B11085D594611
:1027E000FFF790FD306094F89C9140F29D10005DE1
:1027F00000EB09201FFA80F959464846FFF7BBFC59
:1028000038604FF4D07010F80490401C005D00EB6D
:1028100009201FFA80F959464846FFF7ACFCC8F872
:1028200000003068A0603868E060D8F800002061DF
:102830005046BDE8F09F70B503460C46002019468F
:10284000A4F50045392D6FD2DFE805F01D212529BB
:102850002D3135393D4145494D5155595D61666AC6
:102860006F73777B7F83878B8F93989CA1A6ABB088
:10287000B5B9BEC3C8CDD2D7DCE1F1F5F9FDECEBBB
:10288000EAE9E8E7E600B1F8A450156000E1A62502
:102890006D5A1560FCE0A8256D5A1560F8E0B0256A
:1028A0006D5C1560F4E0B1256D5C1560F0E0B2255B
:1028B0006D5A1560ECE0B1F89C501560E8E0B42565
:1028C0006D5C1560E4E0B6256D5A1560E0E0B82552
:1028D0006D5A1560DCE0BA256D5A1560D8E0BC254C
:1028E0006D5A1560D4E0BE256D5A1560D0E0C02544
:1028F0006D5A1560CCE0C2256D5C1560C8E0C3253B
:102900006D5C1560C4E091F8C4501560C0E04FF4F0
:10291000A0756D5C1560BBE091F8C5501560B7E01F
:1029200091F8C7501560B3E0ADE091F8C85015605C
:10293000AEE0B1F93E511560AAE0AA256D5C1560C4
:10294000A6E0AB256D5C1560A2E0AC256D5C156062
:102950009EE0AD256D5C15609AE0AE256D5C15605E
:1029600096E0AF256D5C156092E091F8C650156059
:102970008EE04FF4B0756D5C156089E091F81051F0
:10298000156085E040F211156D5C156080E04FF434
:102990008A756D5815607BE04FF48C756D5A156023
:1029A00076E04FF48D756D5A156071E04FF48E75B9
:1029B0006D5A15606CE0B1F84451156068E04FF451
:1029C000A4756D58156063E04FF4A8756D581560D7
:1029D0005EE04FF4A6756D58156059E04FF4AA7586
:1029E0006D5C156054E040F255156D5C15604FE06C
:1029F0004FF4AB756D5C15604AE040F221156D5CDB
:102A0000156045E04FF491756D5C156040E04FF442
:102A100094756D5A15603BE031E02CE027E022E030
:102A20001DE018E013E00EE009E004E0FFE7CA252E
:102A30006D5A15602CE0CC256D5A156028E0D02524
:102A40006D58156024E0D4256D58156020E0D82518
:102A50006D5815601CE0DC256D58156018E0E42504
:102A60006D58156014E0E8256D58156010E091F878
:102A7000E45215600CE0E0256D58156008E0EC2587
:102A80006D58156004E06FF000451560A80000BFA8
:102A900000BF70BD2DE9F04105460C4600272E46CB
:102AA00040F2C311885D2246611CFFF703FD4FF41D
:102AB000E271885DE21CA11CFFF720FD3846BDE8ED
:102AC000F0812DE9F04106460C4615460027172EE9
:102AD00003DA6FF00900BDE8F08120782870607893
:102AE0006870A078A870E078E87020792871607923
:102AF00000F00F006871A079A871E07900F03F0044
:102B0000E871207A00F00300287204F10901022024
:102B100000F00EF9688104F10B01022000F023F8A7
:102B2000A88104F10D01022000F01DF8E88104F1F4
:102B30000F01022000F0FCF8288204F111010220AC
:102B400000F011F8C0F30C00688204F113010220B8
:102B500000F009F8A88204F11501022000F003F842
:102B6000E8823846B7E710B5024600200B78802B84
:102B700000DB401E04E011F8014B44EA002318B2C8
:102B8000131EA2F10104A2B2F5DC10BD2DE9F04143
:102B900006460C4615460027312E03DA6FF0090071
:102BA000BDE8F0812078287060786870A078A870FF
:102BB000E11C022000F0BCF8A88014F8050F00F01A
:102BC0007F0005F8060F607800F007006870A078B5
:102BD00000F00700A870E07800F03F00E87020796E
:102BE00000F03F002871607900F001006871A07961
:102BF00000F07F00A871E07900F00100E871207A10
:102C000000F03F002872607A00F03F006872A07AFE
:102C1000A872E07AE872207B2873607B6873A07BDF
:102C2000A873E07BE873207C2874607C6874A07CC7
:102C3000A874E07CE874207D2875607D6875A07DAF
:102C4000A875E07DE875207E2876607E6876A07E97
:102C5000A876E07EE876207F2877607F6877A07F7F
:102C6000A877E07FE87794F8200085F8200094F8B2
:102C7000210085F8210094F8220085F8220094F8BC
:102C8000230085F8230094F8240085F8240094F8A4
:102C9000250085F8250094F8260085F8260094F88C
:102CA000270085F8270094F8280085F8280094F874
:102CB000290085F8290094F82A0085F82A0094F85C
:102CC0002B00641F85F82B00AD1F384668E72DE9FF
:102CD000F04106460C46154600270B2E03DA6FF02E
:102CE0000900BDE8F081207800F07F00287060784E
:102CF00000F00F006870A07800F07F00A870E07806
:102D000000F00300E870207900F07F002871611D59
:102D1000022000F00DF8E880E0792872207A6872CD
:102D2000607A00F03F00A872A07AE8723846D8E7CF
:102D300010B50246002004E011F8014B44EA0023DC
:102D400098B2131EA2F10104A2B2F5DC10BD2DE968
:102D5000F04104460E4615460027172E03DA6FF0A1
:102D60000900BDE8F0812078287060786870A0784C
:102D7000A870E078E87020792871607900F00F0081
:102D80006871A079A871E07900F03F00E871207ABD
:102D900000F003002872608905F10902022100F0A9
:102DA000D3F9B4F90C0005F10B02022100F0B4F8DC
:102DB000B4F90E0005F10D02022100F0ADF8208AF1
:102DC00005F10F02022100F0BFF9618AC1F30C0086
:102DD00005F11102022100F09FF8B4F9140005F189
:102DE0001302022100F098F8B4F9160005F115025B
:102DF000022100F091F83846B3E72DE9F04104468E
:102E00000E4615460027122E03DA6FF00900BDE8C2
:102E1000F081207800F00300287060886A1C02218D
:102E200000F092F9A088EA1C022100F08DF9A07947
:102E300000F001006871E07900F00700A871207AC5
:102E4000E871607A2872A07A00F07F006872E07AF8
:102E500000F07F00A872207B00F00300E872607B26
:102E600000F003002873A07B00F00F006873E07B84
:102E7000A873207CE873607C2874A07C00F00300B9
:102E800068743846C3E72DE9F04104460E461546FE
:102E90000027162E03DA6FF00900BDE8F0812078D4
:102EA000287060786870A078A870E07800F07F00E3
:102EB000E870A188C1F30B002A1D022100F044F93B
:102EC000A07900F07F00A871E079E871207A28727B
:102ED000607A00F001006872A07A00F00700E872E2
:102EE000A08905F10C02022100F02EF9E08905F11C
:102EF0000E02022100F028F9208A05F110020221B9
:102F000000F022F9A07CA874E07CE874207D28758C
:102F1000607D68753846C0E770B503460020002420
:102F20001C4600BF05E00D1A6D1E54552412451CA9
:102F3000A8B28842F7DB70BD2DE9F04104460E4689
:102F400015460027202E03DA6FF00900BDE8F08156
:102F500020882A46022100F0F7F8A07800F001004E
:102F6000A870E07800F00F00E870207900F00F0002
:102F70002871607900F01F006871A07900F07F006F
:102F8000A871E07900F07F00E871207A00F001007C
:102F90002872607A6872A07A00F00100A872E07A64
:102FA00000F00300E872207B00F01F002873607BB4
:102FB00000F003006873A07B00F00300A873E07BBF
:102FC00000F00700E873207C00F01F002874607C8C
:102FD00000F001006874A07CA874E07CE874207D97
:102FE0002875607D6875A07DA875E07DE875208BEB
:102FF00005F11802022100F0A7F8A07EA876E07E75
:10300000E876207F00F00F002877607F6877A07F48
:1030100000F00F00A877E07FE877384696E72DE9C3
:10302000F04104460E46154600270B2E03DA6FF0DA
:103030000900BDE8F081207800F07F0028706078FA
:1030400000F00F006870A07800F07F00A870E078B2
:1030500000F00300E870207900F07F002871E0881C
:103060006A1D022100F070F8207AE871607A2872F7
:10307000A07A00F03F006872E07AA8723846D8E77C
:1030800010B503460024052902DA6FF0090010BDCF
:10309000187800F001001070587800F001005070AE
:1030A000987800F001009070D87800F00300D0709C
:1030B000187910712046EAE72DE9F04104460E46E2
:1030C00015460027172E03DA6FF00900BDE8F081DE
:1030D000207800F00F00287060786870A07800F009
:1030E0000F00A870E078E870207900F00F002871D8
:1030F00060796871A07900F03F00A871E07900F074
:103100000F00E871207A2872607A00F03F00687240
:10311000608905F10A02022100F016F8A08905F184
:103120000C02022100F010F8A07BA873E07BE8738A
:1031300005F112020421206900F016F8207D00F04C
:103140000100A8753846C1E770B503460020002489
:103150001C4600BF05E00D1A6D1E54552412451C77
:10316000A8B28842F7DB70BD70B50346002000248A
:103170001C4600BF05E00D1A6D1E5455240A451C5F
:10318000A8B28842F7DB70BD70B5054600242E4614
:10319000522086F89803012086F899034FF4C870EE
:1031A000A6F89A0301F024FBFEF7ACFC4FF40041B3
:1031B0002648FDF753FD1E2001F004FD4FF40041A9
:1031C0002248FDF74DFD1E2001F0FCFC3046FEF7C5
:1031D00021FF044624B11EA0FDF73CF8204670BD37
:1031E000022001F0EFFC54213046FEF797FF044621
:1031F00024B11EA0FDF72EF82046F0E73046FEF77A
:10320000B0FB044624B11EA0FDF724F82046E6E7F3
:10321000022001F0D7FC3046FEF7E5FE044624B15B
:103220001CA0FDF717F82046D9E703213046FEF72A
:103230001FFD044624B11DA0FDF70CF82046CEE783
:10324000022001F0BFFC2046C9E700000008014051
:10325000576169742064657669636520426F6F7495
:10326000206661696C6564210D0A00007365742035
:1032700061646472206661696C6564210D0A0000F6
:1032800064617461696E6974206661696C6564214A
:103290000D0A000073746174696320696E6974209B
:1032A0006661696C6564210D0A0000007365742015
:1032B00064697363616E6365206D6F646520666128
:1032C000696C6564210D0A002DE9F74FCAB0054607
:1032D000174600262C4604F5AC70099004F1420014
:1032E000089004F5B27007902030069018300590D1
:1032F00004F5DA7A04F5E47B04F12C0004900AA8C2
:103300000390002002908046814601904B98A07067
:103310009BF8040000F00F004B9908438BF8040061
:103320004FF4A170015B4FF4BE70015340F2E620F0
:10333000005DFF2803D1002140F2E620015540F254
:10334000E520005D012820D140F2E620005DE0B9D3
:103350004FF4C370015D40F2E720015520214FF486
:10336000C370015540F2C510005D00F0600030B937
:103370005820005B800001B25420015302E000217C
:1033800054200153052F00DA052740F2E520005DA7
:1033900001280BD140F2E620005D012806D140F261
:1033A000E720015D4FF4C37001550627072F17D2A0
:1033B000DFE807F01613100D0A0704004FF00108AC
:1033C00011E04FF00D080EE04FF024080BE04FF035
:1033D000440808E04FF05A0805E04FF0710802E099
:1033E0004FF0830800BF00BFC8F1880080B2019091
:1033F0000AA803900020029009E0002103980170C0
:103400000398401C03900298401C80B20290DDE9B2
:1034100001108842F1DB062F0CDB5EB9C8F1010018
:103420001FFA80F90AA800EB09020B210998FFF79F
:10343000F6FD0646052F0CDB5EB9C8F10D001FFA3C
:1034400080F90AA800EB090217210898FFF77FFC12
:103450000646042F0CDB5EB9C8F124001FFA80F980
:103460000AA800EB090220210798FFF765FD064630
:10347000032F0CDB5EB9C8F144001FFA80F90AA8DB
:1034800000EB090216210698FFF7FDFC0646022F05
:103490000CDB5EB9C8F15A001FFA80F90AA800EBEC
:1034A000090217210598FFF707FE0646012F22DBC8
:1034B0000EBBC8F171001FFA80F99BF8040000F000
:1034C000200020280FD10498807840F001008AF86D
:1034D00000000498807840F001008AF80C000498FD
:1034E00080788AF812000AA800EB090212215046DF
:1034F000FFF783FC06465EB9C8F183001FFA80F926
:103500000AA800EB090205215846FFF7B9FD064657
:1035100036B90AAA41462846019BFEF7EBFD06464E
:103520001EB9284601F09FF806461EB9284601F04C
:1035300059F8064630464DB0BDE8F08F10B502464A
:10354000134603F12C00017000244470022484709F
:103550000024C47001714471022484710024C47178
:1035600010BD014600204FF420620A804FF47A72A9
:103570004A6043F2C8228A60CA6008220A7428227C
:103580004A7409228A7470470146002008220A7092
:103590000B224A704FF47A724A604FF420620A811B
:1035A00052104A8192008A81704701460020002211
:1035B0000A7012224A700F228A700222CA7048F6DC
:1035C000A0424A600C220A8170470146002048F25E
:1035D00003020A80921E4A8048F241028A800E222B
:1035E0008A710A22CA7106220A720E224A720A22BD
:1035F0008A720622CA7202220A7321224A730022A8
:10360000CA810A744FF4B4724A828A82CA82C02282
:103610000A834A838A8308228A771022CA77012282
:1036200081F82020022281F82120012281F8222025
:10363000022281F82320002281F824204FF4206206
:10364000CA840A8548F23002CA624FF47A720A6369
:1036500052004A638A634FF218620A6443F2C82236
:103660004A640122CA634FF4FA528A6470470146E1
:103670000123282253540223292253540A232A22A5
:1036800053544FF4E6624A6270472DE9F041054613
:103690000C46002668892060A889A080E889E0801F
:1036A0006889A060A889A081E889E0810020608203
:1036B00040202075206830B9A08820B9E08810B972
:1036C0000020207401E00120207466B9207C0128CC
:1036D00009D1237DB4F90620B4F904102068FEF75F
:1036E0008AFDE08201E00020E0823046BDE8F08102
:1036F0002DE9F84304460D460026A1460027002088
:10370000009080464FF4B87010F8090000F01007E0
:1037100017B94FF0010801E04FF000086A46312167
:103720002046FEF75FFA06469DF8000000F0010013
:10373000404502D10120287001E000202870304669
:10374000BDE8F88310B5014600200A46032382F83D
:10375000E432002440F2E5239C545B1C9C545B1C27
:103760009C545B1C9C545B1C9C545B1C9C549B1C7D
:103770009C501B1D9C5210BD70B50546002434B9E9
:10378000012240F283712846FEF794FC044634B9C6
:10379000002240F281712846FEF78CFC04461CB9D9
:1037A0002846FEF7BBFE04461CB92846FEF7C0FEBD
:1037B0000446204670BD2DE9F04107460D461646E9
:1037C00000241CB93846FEF79FFE04461CB9384653
:1037D000FEF7B8FE044624B9FA213846FEF72DFC60
:1037E000044634B9012240F281713846FEF762FC8A
:1037F000044634B9052240F283613846FEF75AFC8C
:10380000044624B931463846FEF717FC044634B95D
:1038100001224FF4F0613846FEF74CFC044634B9FF
:103820002A4640F284713846FEF754FC044620468E
:10383000BDE8F0812DE9F04781460D4690461E46D1
:10384000002400272F4629E034B93A4640F294710B
:103850004846FEF72FFC044634B9002240F283713B
:103860004846FEF727FC044624B905214846FEF7E2
:10387000E4FB044634B9012240F283714846FEF766
:1038800019FC04463CB9042332464FF4F261484621
:10389000FEF7C8F90446361D781CC7B205EB0800D0
:1038A000B842D1DC2046BDE8F0877CB505460E461F
:1038B00000244FF496612846FEF7BFFB04464CB93E
:1038C000012000900346E522314601902846FEF78C
:1038D000BCFB04461CB903212846FFF72FFE2046F7
:1038E0007CBD2DE9FC4704460D460026A146002775
:1038F000B0464FF4B87010F8090000F0100717B97F
:103900004FF0010801E04FF000080120009043460D
:103910003122294601902046FEF797FB06463046A5
:10392000BDE8FC872DE9FC5F07460C4690461D4626
:10393000DDE90DABDDF8309000262B4642462146EE
:103940003846CDE9009A00F0D5F906462EB95A4618
:1039500029462046FEF7F9FC06463046BDE8FC9FA6
:103960002DE9FC5F07460C4690461D46DDE90DAB90
:10397000DDF8309000262B46424621463846CDE9F8
:10398000009A00F08DF906462EB95A46294620467F
:10399000FEF7DBFC06463046BDE8FC9F2DE9FC5FE8
:1039A00007460C4690461D46DDE90DABDDF830902C
:1039B00000262B46424621463846CDE9009A00F0C3
:1039C000C3F906462EB95A4629462046FEF7BDFCE5
:1039D00006463046BDE8FC9F2DE9FC4706460F46EB
:1039E00090469946DDE90A4A00254B46424639464B
:1039F0003046CDE9004A00F02EF805460DB9012009
:103A000060702846BDE8FC872DE9FC4781468A4660
:103A100014461D46DDE90A674FF000082B46224692
:103A200051464846CDE9006700F015F88046B8F1E8
:103A3000000F0DD10020A8742071B120607100200A
:103A4000E071D420207297F82200E87110203071C4
:103A50004046BDE8FC87F0B50446DDE90565002079
:103A60004FF4206727800027A770E77027716771E0
:103A7000A771E77127726772A772E7721127277320
:103A8000022767730027A7730227E77308272774A5
:103A9000002767740835AF7DA774EF7DE7742F7E2C
:103AA0002775012767750027A775E7752783FF2707
:103AB000A7762F7AE7762F79277700276777A7777A
:103AC000E7770F704F7020278F700B27CF70EF882C
:103AD0008F8002278F710D27CF716F790F720027AA
:103AE0004F7201278F7200278F81CF814FF40C47CF
:103AF0000F8200278F743827CF74FF270F75012797
:103B00004F75002717701A275770002797702027C6
:103B1000D77001271771CC2757710B279771012791
:103B2000D771F527177209275772AF8957816F8AA6
:103B30009781082797737827D77300271761177520
:103B400001271F7000275F809F809F716F7EDF714C
:103B50000B271F7209275F7215F8017C9F72AF78DF
:103B6000DF7201271F732F7F5F73EF7E083D9F7306
:103B7000C727DF73FF271F74DB275F7402279F743B
:103B8000002777700127B770F77021273771F0BDD4
:103B90002DE9FC478046894614461D46DDE90AA604
:103BA00000272B46224649464046CDE900A6FFF7AE
:103BB00052FF07469FB90F20A0710D206072708AD6
:103BC0006081308BA0810820A073B820E0730F20A3
:103BD00028720D206872B079A872707AE87238463F
:103BE000BDE8FC872DE9FC4707460C4690461D467C
:103BF000DDE90A9A00262B46424621463846CDE9A1
:103C0000009AFFF728FF06461EB90220A0723B204B
:103C100068743046BDE8FC872DE9FC4707460C4632
:103C200090461D46DDE90A9A00262B46424621466B
:103C30003846CDE9009AFFF70EFF06461EB902206E
:103C4000A0725B2068743046BDE8FC872DE9FC4714
:103C50008046894614461D46DDE90AA600272B4604
:103C6000224649464046CDE900A6FFF7F4FE074646
:103C70009FB90720A07105206072F08A6081B08B27
:103C8000A0810820A0733820E07307202872052047
:103C90006872307AA872F07AE8723846BDE8FC871C
:103CA0002DE9FC4781468A4614461D46DDE90A6730
:103CB0004FF000082B46224651464846CDE90067A2
:103CC000FFF7C9FE8046B8F1000F10D10020A8749C
:103CD0002071B12060710020E071D42020724FF477
:103CE000C060206197F82200E871402030714046A2
:103CF000BDE8FC872DE9FC4781468A4614461D46EF
:103D0000DDE90A674FF000082B4622465146484637
:103D1000CDE90067FFF73CFF8046B8F1000F10D1F6
:103D20000020A8742071972060710020E071B120FC
:103D300020724FF4C060206197F82200E8714020A3
:103D400030714046BDE8FC872DE9FC4781468A4634
:103D500014461D46DDE90A674FF000082B4622464F
:103D600051464846CDE90067FFF770FF8046B8F13D
:103D7000000F11D10020A8740120207184206071EF
:103D80000120E071B12020724FF4C060206197F8EB
:103D90002200E871402030714046BDE8FC872DE9E3
:103DA000F04104460D4616460027012332462946B7
:103DB000204600F004F807463846BDE8F0812DE9BA
:103DC000F04104460D4616461F464FF000083B469C
:103DD00032462946204600F021FD08B14FF0010887
:103DE0004046BDE8F0812DE9F04105460E461746F4
:103DF000984600242CB9322204212846FFF7DBFC28
:103E0000044634B943463A4631462846FFF712FD88
:103E100004461CB92846FFF7AFFC04462046BDE81F
:103E2000F08170B50646002534462DB904F5AC7115
:103E30003046FEF79FFC05462DB904F1420130469D
:103E4000FEF7B3FB054665B904F5FD713046FEF794
:103E5000FAFB05462DB904F1F00104F5FD70FEF7FB
:103E600083FA35B904F52D72DE213046FDF7CAFE1E
:103E700005464FF4AF70005BB0F5805F04DA4BF697
:103E8000CC414FF4AF7001532DB904F19E0130467F
:103E9000FEF7B8FB054694F8A20070B9A320005DB8
:103EA00058B994F89E000007000E84F8A2009F20E5
:103EB000005D0007010EA3200155284670BDF8B52E
:103EC00005460E461446002702236A463146284618
:103ED000FFF775FF07469DF801009DF8001000EB05
:103EE000012020803846F8BD2DE9FC4106460F46EA
:103EF00000243546002000902CB96A463021304617
:103F0000FDF770FE044624B99DF800104FF4B87018
:103F1000415524B93946304600F057FB04461CB9D8
:103F2000304600F0F6FB044634B9022301AA892189
:103F30003046FDF777FE044644B99DF8041040F280
:103F4000CF1041559DF80510401C415540F2CF104F
:103F5000405D00F01F0140F2CF10415524B91CB95B
:103F60003046FEF7E2F9044624B90021304600F05D
:103F70002CFB04462046BDE8FC812DE9F04186B0CB
:103F80000746884600243D4605F588761CB9384624
:103F9000FEF7D8FA044674B94FF4AF70405B7189EC
:103FA000B289CDE900210290338971783846726870
:103FB00000F05FFA044624B931783846FFF794FFE1
:103FC000044634B9022304AAD9213846FDF72AFE53
:103FD000044644B99DF8101040F2AF2041559DF8B9
:103FE0001110401C415534B9022304AA142138464B
:103FF000FEF780F804463CB99DF810104920415561
:104000009DF811104A20415534B9062304AAAC2169
:104010003846FDF707FE044634B9062304AA0D21ED
:104020003846FEF767F80446BCB99DF8100085F8DD
:1040300042009DF81110432041559DF81210442074
:1040400041559DF81310452041559DF81410462008
:1040500041559DF81510472041559CB940F2CF10AD
:10406000405D0E2804D00F2805D0102809D105E0A6
:104070006FF01B0405E06FF01C0402E06FF01D04FC
:1040800000BF00BF88F8004000BF00BF00BF00BFF6
:1040900000BF00BF204606B0BDE8F0812DE9F04129
:1040A00004460D46002726464FF4E5708555825D8F
:1040B00085212046FDF7FEFF07463846BDE8F08122
:1040C00030B502460B46002011464FF42D74645A59
:1040D0000CB96FF00E0038B94B614FF42D74645A6F
:1040E0005C434FF4D6756C5030BD10B502460020CD
:1040F00013464FF4D474E15210BD10B502460020AF
:1041000013464FF4D374E15210BD000070B506465B
:104110000D460024022000F055FD3046FDF712FD4B
:10412000044624B13AA0FCF795F8204670BD022061
:1041300000F048FD03213046FDF79AFD04460CB11E
:104140002046F3E71E2000F03DFD0122002130460D
:10415000FDF7EDFD04460CB12046E7E7022000F034
:1041600031FD012211463046FDF7E1FD04460CB158
:104170002046DBE7022000F025FDC5EBC5002949FC
:1041800001EB4000426800213046FDF7F4FD044693
:104190000CB12046CAE7022000F014FDC5EBC500B3
:1041A000204901EB4000026801213046FDF7E3FDA4
:1041B00004460CB12046B9E7C5EBC500194A02EB2D
:1041C000400081683046FDF7F9FD04460CB12046F9
:1041D000ACE7022000F0F6FC4FF4FA713046FDF730
:1041E00092FD044624B110A0FCF734F820469DE768
:1041F000022000F0E7FC3046FDF7A5FE044624B19E
:1042000015A0FCF727F8204690E720468EE700002F
:1042100072656673706164206661696C6564210D06
:104220000A000000DC160020536574496E74657244
:104230004D6561737572656D656E74506572696FF9
:10424000644D696C6C695365636F6E64732066615D
:10425000696C6564210D0A007374617274206D6568
:1042600061737572656D656E74206661696C6564F5
:10427000210D0A002DE9F04104460D46002726468F
:1042800086F8C85196F8C82183212046FDF712FF11
:1042900007463846BDE8F0812DE9FF4F87B0044658
:1042A000894692464FF00008274607F5B2700690FF
:1042B00020300590183004901830039007F5E4750D
:1042C00007F1A40607F5397B87F801901498F86088
:1042D000159838611698786103212046FFF72EF96A
:1042E000B9F1070F5AD008DCB9F1070F74D2DFE833
:1042F00009F09E19232D37414B00B9F1240F77D0D7
:1043000009DCB9F1080F53D0B9F1110F5AD0B9F146
:10431000120F61D162E0B9F1250F74D0B9F1260F07
:10432000F7D17AE0CDE90056DDE90332DDE9051089
:10433000FFF791FB80467DE0CDE90056DDE90332D1
:10434000DDE90510FFF782FC804673E0CDE90056F9
:10435000DDE90332DDE90510FFF71AFC804669E06C
:10436000CDE90056DDE90332DDE90510FFF73AFC3F
:1043700080465FE0CDE90056DDE90332DDE9051056
:10438000FFF74AFC804655E0CDE90056DDE90332EF
:10439000DDE90510FFF784FC80464BE0CDE90056CF
:1043A000DDE90332DDE90510FFF7CEFC804641E090
:1043B000CDE90056DDE90332DDE90510FFF79AFC8F
:1043C000804637E0CDE90056DDE90332DDE905102E
:1043D000FFF702FB80462DE029E009E0CDE9005619
:1043E000DDE90332DDE90510FFF70EFB804621E031
:1043F0008DE86008DDE90332DDE90510FFF7CEFA4C
:10440000804617E0FFE78DE86008DDE90332DDE96B
:104410000510FFF7A5FA80460CE08DE86008DDE99D
:104420000332DDE90510FFF77DFA804602E06FF008
:10443000030800BF00BFB8F1000F04D10698A0F830
:1044400000A0A7F818A0B8F1000F06D12046DDE9BA
:1044500014230A9900F06CF88046B8F1000F04D1DB
:1044600020461699FFF72CFE804640460BB0BDE86B
:10447000F08F2DE9F84F8046894692461F46002569
:104480004446AB46002649460C98FDF794FE834609
:104490004FEA0A3606EB5B06B6FBFBF6FF2E04D9A5
:1044A000FF2140F28B10015502E040F28B100655BF
:1044B00084F8A2913DB940F28B10025D4B21404639
:1044C000FDF7F8FD05463DB94FF4D170025D60215E
:1044D0004046FDF7EFFD05464FF4D170005D8DF8C5
:1044E00000004FF4D170005D8DF8010035B9022352
:1044F0006A4678214046FDF7FDFD054652200753E8
:104500002DB93A461C214046FDF7E4FD05462DB97C
:10451000642140460A9AFDF7DDFD05462DB9662166
:1045200040460B9AFDF7D6FD05462846BDE8F88FB4
:104530002DE9FC4705460E46174698464FF0000900
:104540002C464FF4AF70005B08B96FF00E09B9F15B
:10455000000F12D1A660E760C4F8108004F5CE7099
:1045600004F5C271CDE900104FF4AF70035B424611
:1045700039463046FDF77BFE81464846BDE8FC875C
:104580002DE9F04105460C4600272E46217860783B
:1045900006F2C312FDF7E0FFE178A07806F5E272BB
:1045A000FDF7FFFF3846BDE8F08130B50246002038
:1045B00013464FF4B074E45C04F0030404EB81048C
:1045C000E5B24FF4B074E55430BD70B506460C4604
:1045D00000252DB9224627213046FDF76BFD054603
:1045E000284670BD10B502460020134603F12C0189
:1045F0004FF4E674E45C04F0F00444B903240C7056
:1046000000244C7002248C700024CC702AE04C787A
:10461000FF2C02D180244C7002E04C78641C4C705A
:104620008C7884F002048C700C78032C02D0042C5B
:104630000ED108E0CC7884F00104CC7001244C70D9
:1046400004240C700DE0CC7884F00104CC7008E0F8
:1046500003240C7000244C7002248C700024CC7055
:1046600000BF00BF10BD10B502460020134603F185
:104670002C014FF4E674E45C04F0F00444B9032424
:104680000C7100244C7102248C710024CC713FE029
:104690004C79FF2C02D180244C7102E04C79641CCF
:1046A0004C718C7984F002048C710C79032C06D047
:1046B000062C14D0072C17D0082C1FD117E04FF46C
:1046C000E374E45C04F00204002C02DD06240C71A7
:1046D00001E008240C7100244C71CC7117E0002417
:1046E0004C7108240C7112E008240C710FE0CC7995
:1046F00084F00104CC7108240C7108E003240C71CF
:1047000000244C7102248C710024CC7100BF00BFC6
:1047100010BDF8B5044600252646002000903078EC
:1047200030B94EF660212046FFF7DBF8054612E06F
:10473000002000900AE069462046FEF7D9FF0546B2
:1047400025B901212046FDF770FC05469DF80000C3
:1047500008B9002DEFD02846F8BDF7B504460D4640
:104760000026012302AA2946204600F003F8064647
:104770003046FEBD2DE9F04104460D4616461F4663
:104780004FF000083B4632462946204600F082F8AA
:1047900008B14FF001084046BDE8F081F8B5064683
:1047A0000C461546002728128DF80000E8B28DF857
:1047B0000100204604EBD0714910A4EB410101290E
:1047C0000DD101236A4621463046FFF7D3FF074645
:1047D00001236A4621463046FFF7CCFF07460223F5
:1047E0006A4621463046FFF7C5FF07463846F8BD02
:1047F00008B501210420FCF79FFD4FF40040ADF8FF
:10480000000010208DF8030003208DF80200694697
:104810000148FCF72CF908BD000801402DE9F041E2
:1048200007460D4616461C4600F02AF9384600F0A9
:10483000EDF800F071F920B100F048F90120BDE871
:10484000F081281200F0E2F800F066F9E8B200F01A
:10485000DDF800F061F9012000F0B4F900F010F982
:1048600047F0010000F0D2F800F056F90CE000F03B
:104870008FF83070012C02D100F062F801E000F0F6
:1048800037F8761C601E84B2002CF0D100F01EF9BF
:104890000020D4E72DE9F04107460C4615461E4698
:1048A00000F0EEF8384600F0B1F800F035F920B12C
:1048B00000F00CF90120BDE8F081201200F0A6F80C
:1048C00000F02AF9E0B200F0A1F800F025F905E0C7
:1048D00015F8010B00F09AF800F01EF9301EA6F151
:1048E00001018EB2F4D100F0F1F80020E3E70000FE
:1048F00010B500200F4908600F48006820F47020B0
:104900000D4908600846006840F440300860002007
:104910000A49C1F89001022000F07AF90120054906
:104920000860022000F074F900200449C1F89401E5
:1049300010BD000094812142000C01400080214202
:1049400010B500200F4908600F48006820F470205F
:104950000D4908600846006840F4403008600120B6
:104960000A49C1F89001022000F052F901200549DE
:104970000860022000F04CF900200449C1F89401BD
:1049800010BD000094812142000C014000802142B2
:1049900070B500241A48006820F470201849086097
:1049A0000846006840F400200860012015490860AE
:1049B000042000F02DF900251AE06006040E002006
:1049C0001049091D0860042000F022F901200E4959
:1049D000C1F89401042000F01BF90A4880380068EF
:1049E00008B144F00104042000F012F9681CC5B2BB
:1049F000082DE2DB00200349091D0860204670BD38
:104A0000000C0140908121420080214270B5044693
:104A10001848006820F470201649086008460068AD
:104A200040F44030086000201349086000251EE073
:104A3000E00920B101201049091F086003E00020AF
:104A40000D49091F08606006040E022000F0E0F81E
:104A5000012009490860022000F0DAF80020074927
:104A6000C1F89401022000F0D3F8681CC5B2082DEB
:104A7000DEDB70BD000C01409481214200802142A8
:104A800010B50F48006820F470200D4908600846F2
:104A9000006840F44030086001200A4908600A4973
:104AA000C1F89401042000F0B3F800200549086023
:104AB000042000F0ADF800200349C1F8940110BDB6
:104AC000000C0140908121420080214210B50F4826
:104AD000006820F470200D4908600846006840F422
:104AE0004030086000200A4908600A49C1F8900176
:104AF000042000F08DF80120054908600549C1F83F
:104B00009001042000F084F810BD0000000C01406A
:104B1000948121420080214210B50024144800688D
:104B200020F47020124908600846006840F4002014
:104B3000086001200F49086000F06AF801200E4962
:104B4000C1F8940100F064F807E0601CC4B2FA2CCC
:104B500003DDFFF7BBFF012010BD06488038006869
:104B60000028F2D10349091D086000BFF4E70000E6
:104B7000000C0140908121420080214200BF70471B
:104B800010B56FF00400FCF75BFD0A4800680A49A5
:104B9000B0FBF1F0094908700846007800EB4001CD
:104BA000C1EBC0104FF6FF7101EAC0000449088054
:104BB00010BD00002C00002000127A00140000201C
:104BC000160000200146114A12884A434FF0E023A4
:104BD0005A6100229A611A46126942F001021A6172
:104BE00000BF4FF0E022106900F001021AB100F49A
:104BF0008032002AF5D04FF0E022126922F0010243
:104C00004FF0E0231A6100229A61704716000020DD
:104C10000146114A12784A434FF0E0235A610022BC
:104C20009A611A46126942F001021A6100BF4FF000
:104C3000E022106900F001021AB100F48032002A6B
:104C4000F5D04FF0E022126922F001024FF0E0238C
:104C50001A6100229A6170471400002000BF054AC3
:104C6000128802F04002002AF9D0C2B2014B1B1D8B
:104C70001A80704700440040FFF782FFFBF782FF75
:104C8000FBF7CEFE4FF4165000F09EF84FF416508E
:104C900000F0F0F84FF4A060FCF7BCF8FCF72AF93C
:104CA000FCF7C2F8FCF71AF8FBF726FDFCF766F8EC
:104CB000FBF74AFD1023002211461046FCF74EFA7E
:104CC0001023022200211846FCF748FA102305227F
:104CD00000212020FCF742FA102308220021502056
:104CE000FCF73CFA1023012219460020FCF736FAA3
:104CF0001023022219461846FCF730FA1023052229
:104D000019462020FCF72AFA102322A21946502027
:104D1000FCF7A8FA1023032220210020FCF71EFA3A
:104D20001023042220211846FCF718FA102305222C
:104D300020210846FCF712FA102306223021002019
:104D4000FCF70CFA1023072230211846FCF706FA6C
:104D50001023052230212020FCF700FA02E00EA0EB
:104D6000FBF778FA1148FEF70FFA0028F7D102E0B6
:104D70000FA0FBF76FFA134801780C48FFF7C6F94C
:104D80000028F5D105E0FCF745F94FF4FA70FFF77C
:104D900019FFF8E725524800564C35334C315F690E
:104DA0006E69745F4572726F720A0000241D0020E4
:104DB000564C35334C315F6D6F64655F4572726F71
:104DC0000A0000002600002010B586B0044601212C
:104DD00044F20400FCF7B0FA4FF40070ADF8140090
:104DE00003208DF8160018208DF8170005A91F481C
:104DF000FBF73DFE4FF48060ADF8140004208DF801
:104E0000170005A91948FBF732FE25208DF8000090
:104E100003208DF801008DF8020001208DF80300B9
:104E20006846FBF7BFFF01940020ADF80800ADF81D
:104E30000A00ADF80C00ADF810000C20ADF80E0023
:104E400001A90B48FCF716FD012240F22551084844
:104E5000FCF7EAFC012240F224410548FCF7E4FC9F
:104E600001210348FCF75CFC06B010BD00080140BE
:104E70000038014010B586B0044601214804FCF713
:104E80003BFA01210420FCF757FA2348FCF754FCB5
:104E90000420ADF8140003208DF8160018208DF8BA
:104EA000170005A91D48FBF7E2FD0820ADF8140026
:104EB00004208DF8170005A91848FBF7D8FD262017
:104EC0008DF8000004208DF8010003208DF8020009
:104ED00001208DF803006846FBF764FF0194002071
:104EE000ADF80800ADF80A00ADF80C00ADF8100000
:104EF0000C20ADF80E0001A90748FCF7BBFC01220D
:104F000040F225510448FCF78FFC01210248FCF7D0
:104F100007FC06B010BD000000440040000801403E
:104F20000000000000000000000000000000000081
:104F30003F40000000000000000030004000300052
:104F40004000000009000BC03D000BC03D000900FF
:104F500018C024407FE0224031800000180024C0A7
:104F60001B000D803240018003801C4027401C80C4
:104F7000074000401000600000000000000000003A
:104F80000000000000001F80204040200000402062
:104F900020401F8000000000090006001F8006005E
:104FA00009000000040004003F8004000400000029
:104FB0000010006000000000000000000400040079
:104FC0000400040004000000000000400000000095
:104FD00000000000002001C0060038004000000072
:104FE0001F802040204020401F8000000000104013
:104FF0003FC000400000000018C021402240244073
:105000001840000010802040244024401B800000F5
:1050100002000D0011003FC0014000003C80244010
:1050200024402440238000001F802440244034403A
:10503000038000003000200027C03800200000005E
:105040001B802440244024401B8000001C0022C000
:10505000224022401F8000000000000008400000A5
:1050600000000000000000000460000000000000DC
:10507000000004000A0011002080404009000900DF
:1050800009000900090000000000404020801100D4
:105090000A0004001800200023402400180000002B
:1050A0001F802040274029401F400000004007C0CB
:1050B00039000F0001C0004020403FC02440244080
:1050C0001B8000001F8020402040204030800000D6
:1050D00020403FC0204020401F80000020403FC0B3
:1050E00024402E4030C0000020403FC024402E000D
:1050F000300000000F00108020402240338002006A
:1051000020403FC0040004003FC020402040204019
:105110003FC02040204000000060202020203FC0F1
:105120002000200020403FC024400B0030C0204021
:1051300020403FC020400040004000C03FC03C0035
:1051400003C03C003FC0000020403FC00C40230093
:105150003FC020001F802040204020401F800000D2
:1051600020403FC024402400180000001F80214040
:10517000214020E01FA0000020403FC02440260026
:1051800019C0004018C02440244022403180000053
:10519000300020403FC020403000000020003F8011
:1051A000004000403F80200020003E0001C007007A
:1051B00038002000380007C03C0007C0380000005D
:1051C000204039C0060039C020400000200038408F
:1051D00007C0384020000000304021C02640384041
:1051E00020C00000000000007FE0402040200000C0
:1051F000000070000C000380004000000000402010
:1052000040207FE00000000000002000400020005F
:10521000000000000010001000100010001000102E
:1052200000000000400000000000000000000280BC
:105230000540054003C0004020003FC0044004403A
:10524000038000000000038004400440064000008A
:1052500000000380044024403FC000400000038061
:105260000540054003400000000004401FC02440EA
:1052700024402000000002E00550055006500420A4
:1052800020403FC00440040003C000400000044030
:1052900027C000400000000000100010041027E0AC
:1052A0000000000020403FC00140070004C004404F
:1052B000204020403FC000400040000007C00400E4
:1052C00007C0040003C00000044007C004400400FD
:1052D00003C000400000038004400440038000003D
:1052E000041007F004500440038000000000038015
:1052F0000440045007F00010044007C002400400BE
:1053000004000000000006400540054004C0000005
:10531000000004001F8004400040000004000780DB
:105320000040044007C000400400070004C00180A2
:1053300006000400060001C0070001C006000000CE
:10534000044006C0010006C004400000041007101D
:1053500004E00180060004000000044005C006408F
:10536000044000000000000004007BE0402000003A
:10537000000000000000FFF00000000000004020DE
:105380007BE004000000000040008000400020009E
:1053900020004000000000000000000000000000AD
:1053A000000000000000000000001FCC000C000006
:1053B000000000000000080030006000080030001D
:1053C00060000000022003FC1E20022003FC1E20BF
:1053D0000220000000000E1811043FFF10840C781A
:1053E000000000000F0010840F3800C007781884F8
:1053F0000078000000780F8410C411240E9800E497
:105400000084000808006800700000000000000030
:105410000000000000000000000007E01818200451
:1054200040020000000040022004181807E00000BD
:10543000000000000240024001800FF001800240A5
:10544000024000000080008000800FF80080008093
:10545000008000000001000D000E000000000000B0
:1054600000000000000000800080008000800080BC
:10547000008000800000000C000C00000000000014
:105480000000000000000006001800600180060017
:1054900018002000000007F0080810041004080895
:1054A00007F000000000080408041FFC00040004CA
:1054B0000000000000000E0C101410241044118491
:1054C0000E0C000000000C181004110411041288C6
:1054D0000C700000000000E00320042408241FFCDE
:1054E0000024000000001F9810841104110410888B
:1054F00010700000000007F00888110411041888DB
:105500000070000000001C00100010FC13001C00C4
:105510001000000000000E38114410841084114463
:105520000E38000000000700088C10441044088862
:1055300007F00000000000000000030C030C000056
:105540000000000000000000000101060000000053
:105550000000000000000080014002200410080844
:10556000100400000220022002200220022002205B
:10557000022000000000100408080410022001406E
:105580000080000000000E001200100C106C108053
:105590000F00000003E00C1813E4142417C40828BB
:1055A00007D000000004003C03C41C40074000E496
:1055B000001C000410041FFC1104110411040E88C7
:1055C0000070000003E00C18100410041004100810
:1055D0001C10000010041FFC100410041004080824
:1055E00007F0000010041FFC1104110417C410047C
:1055F0000818000010041FFC1104110017C010004F
:105600000800000003E00C181004100410441C787B
:105610000040000010041FFC1084008000801084F3
:105620001FFC10040000100410041FFC10041004E0
:105630000000000000030001100110011FFE100017
:105640001000000010041FFC110403801464181CD7
:105650001004000010041FFC1004000400040004E7
:10566000000C000010041FFC1F0000FC1F001FFCAA
:105670001004000010041FFC0C04030000E01018CC
:105680001FFC100007F0080810041004100408089C
:1056900007F0000010041FFC1084108010801080A0
:1056A0000F00000007F0081810241024101C080A2E
:1056B00007F2000010041FFC1104110011C011308A
:1056C0000E0C000400000E1C110410841084104401
:1056D0001C3800001800100010041FFC10041000FB
:1056E0001800000010001FF810040004000410044B
:1056F0001FF8100010001E0011E0001C0070138045
:105700001C0010001FC0103C00E01F0000E0103C17
:105710001FC000001004180C163401C001C016345C
:10572000180C100410001C00130400FC13041C00CF
:10573000100000000804101C1064108413041C04E2
:10574000101800000000000000007FFE4002400230
:1057500040020000000030000C0003800060001CCC
:105760000003000000004002400240027FFE0000F3
:105770000000000000000000200040004000400049
:1057800020000000000100010001000100010001F3
:105790000001000100004000400020000000000067
:1057A000000000000000009801240144014401446D
:1057B00000FC000410001FFC0088010401040088A4
:1057C0000070000000000070008801040104010462
:1057D0000088000000000070008801040104110826
:1057E0001FFC0004000000F801440144014401448E
:1057F00000C800000000010401040FFC11041104A2
:1058000011001800000000D601290129012901C951
:105810000106000010041FFC0084010001000104C7
:1058200000FC000400000104190419FC0004000439
:10583000000000000000000300010101190119FE31
:105840000000000010041FFC0024004001B4010C03
:10585000010400000000100410041FFC00040004F8
:1058600000000000010401FC0104010001FC01042E
:10587000010000FC010401FC00840100010001049E
:1058800000FC0004000000F801040104010401040C
:1058900000F80000010101FF0085010401040088F7
:1058A0000070000000000070008801040104010580
:1058B00001FF00010104010401FC00840104010056
:1058C00001800000000000CC0124012401240124F7
:1058D0000198000000000100010007F80104010424
:1058E00000000000010001F80004000400040108A9
:1058F00001FC0004010001800170000C0010016037
:105900000180010001F0010C003001C00030010CE9
:1059100001F0010000000104018C00740170018C91
:1059200001040000010101810171000E00180160F5
:105930000180010000000184010C01340144018454
:10594000010C0000000000000000000001003EFC0F
:10595000400240020000000000000000FFFF0000C5
:10596000000000000000400240023EFC0100000078
:105970000000000000006000800080004000400047
:1059800020002000000000000000000000000000D7
:105990000000000000000000000000000000000007
:1059A00000000000000000000000000000000000F7
:1059B000000000000000000F80380FFE380F803814
:1059C00000000000000000000000000000000000D7
:1059D00000000100000600000C000038000031004B
:1059E000000600000C00003800003000000000003D
:1059F0000000000061800067F807F9800061800006
:105A000061800061800061800067F807F9800061B3
:105A10008000000000000000000001C0E003E0F092
:105A20000630080418081FFFFE040E080787F0035D
:105A300081E000000000000001F000060C000404FA
:105A400008060C7001F9C0000E00003BE000EC18E5
:105A5000070808040C180003E00000000001E00043
:105A600007F003F818041C0804170807E1D003C066
:105A7000E00023B0003C08002008000010000000F7
:105A80000000000100003100003200001C00000096
:105A90000000000000000000000000000000000006
:105AA00000000000000000000000000000000000F6
:105AB000000000007F0001FFC00780F00C001810FC
:105AC000000420000200000000000020000210007E
:105AD000040C00180780F001FFC0007F00000000E8
