:020000040800F2
:1000000060070020D5010008E5060008DD060008AD
:10001000E1060008990400081F0C00080000000019
:10002000000000000000000000000000650800085B
:1000300075050008000000006D0700087909000838
:10004000EF010008EF010008EF010008EF010008D0
:10005000EF010008EF010008EF010008EF010008C0
:10006000EF010008EF010008EF010008EF010008B0
:10007000EF010008EF010008EF010008EF010008A0
:10008000EF010008EF010008EF010008EF01000890
:10009000EF010008EF010008EF010008EF01000880
:1000A000EF010008EF010008EF010008EF01000870
:1000B000EF010008EF010008EF010008EF01000860
:1000C000EF010008EF010008EF010008EF01000850
:1000D000EF010008DD090008EF010008EF0100084A
:1000E000EF010008EF010008EF010008EF01000830
:1000F000EF010008EF010008EF010008EF01000820
:10010000EF010008EF010008EF010008EF0100080F
:10011000EF010008EF010008EF010008EF010008FF
:10012000EF010008EF010008EF010008EF010008EF
:1001300000F002F800F03FF80AA090E8000C8244BA
:100140008344AAF10107DA4501D100F034F8AFF297
:10015000090EBAE80F0013F0010F18BFFB1A43F0A5
:1001600001031847240D0000440D0000103A24BF7D
:1001700078C878C1FAD8520724BF30C830C144BF0C
:1001800004680C607047000000230024002500264E
:10019000103A28BF78C1FBD8520728BF30C148BFEA
:1001A0000B607047732900F0EA80002070471FB58C
:1001B0001FBD10B510BD00F03DF91146FFF7F7FF68
:1001C00000F0AEFD00F05BF903B4FFF7F2FF03BCF3
:1001D00000F027FD0948804709480047FEE7FEE791
:1001E000FEE7FEE7FEE7FEE7FEE7FEE7FEE7FEE7E7
:1001F00004480549054A064B704700007D09000880
:100200003101000860010020600700206003002029
:1002100060030020704700000FB4044910B503AA22
:10022000029800F0B1F810BC5DF814FB1800002033
:100230002DE9F0410E460446002020622046E16888
:10024000884730B3252805D0D4E901219047206A9A
:10025000401CF2E7E168204600278847050018D0D7
:10026000A5F14100192802D820354FF40067324625
:10027000294620462760FFF795FF40B1012804D0AA
:10028000F61D26F007060836D8E7361DD6E72846BD
:10029000DAE7206ABDE8F08170B50C460546012A10
:1002A00005D02878800600D5EA69002302E0012302
:1002B00005E05B1C934202D2E05C0028F9D1A869FA
:1002C000E618C01AA861286A184428622846AFF3C5
:1002D000008004E0D5E9012114F8010B9047B442F5
:1002E000F8D32846AFF3008070BD30B505460B4605
:1002F0002A4613F8014B12F8010B08B1A042F8D0BE
:100300001CB1002802D06D1CF1E7284630BD4FF02B
:1003100000020429C0F0128010F0030C00F04880A5
:10032000CCF1040CBCF1020F18BF00F8012BA8BFE0
:1003300020F8022BA1EB0C0100F03AB85FEAC17C77
:1003400024BF00F8012B00F8012B48BF00F8012B57
:100350007047704770477047704710B5436913B1D5
:10036000AFF3008001E0FFF797FF012010BD127886
:1003700000F124010A7000224A700122EDE71168A1
:100380004FF0FF32E9E70000074B70B50D467B44A4
:1003900000F039F80446284600F048F810B14FF054
:1003A000FF3070BD204670BD730900004FF00002A1
:1003B00000B5134694469646203922BFA0E80C505B
:1003C000A0E80C50B1F12001BFF4F7AF090728BF36
:1003D000A0E80C5048BF0CC05DF804EB890028BFB2
:1003E00040F8042B08BF704748BF20F8022B11F0DB
:1003F000804F18BF00F8012B7047000001694A1CAC
:1004000002610878704700B58FB0CDE90131002155
:10041000059105497944CDE9031011466846FFF777
:1004200007FF0FB000BD0000E5FFFFFF007B00F0FD
:1004300080007047754600F02BF8AE46050069460F
:10044000534620F00700854618B020B5FFF7D0FED0
:10045000BDE820404FF000064FF000074FF00008C5
:100460004FF0000B21F00701AC46ACE8C009ACE846
:10047000C009ACE8C009ACE8C0098D46704710B5AA
:100480000446AFF300802046BDE81040FFF79CBE55
:1004900000487047FC00002000BFFEE710B516487A
:1004A000006820F00F00144908600846006840F01A
:1004B0000800086004E0601CC4B2012000F0FCFBEE
:1004C0000E48006808B1642CF5DB642C01DB0120C8
:1004D00010BD002404E0601CC4B2012000F0ECFB5D
:1004E0000648006808B9642CF5DB642C01DB0120A8
:1004F000EEE70020ECE70000000801400001214287
:1005000010B50C48006820F00F000A490860084642
:10051000006840F0030008600020074908601420CC
:1005200000F0A4FB01200549C1F880011E2000F065
:10053000C3FB10BD000801408001214200002142A0
:1005400008B50121042000F013F90120ADF80000E6
:1005500003208DF8020010208DF80300694604483E
:1005600000F009F8FFF7CCFFFFF798FF08BD000087
:100570000008014070472DE9F041024600250026A1
:10058000002000230024002791F803C00CF00F0581
:1005900091F803C00CF0100CBCF1000F03D091F8DF
:1005A00002C04CEA050591F800C0BCF1000F31D043
:1005B000146800202BE04FF0010C0CFA00F3B1F8A6
:1005C00000C00CEA03069E4220D183004FF00F0CBE
:1005D0000CFA03F7BC4305FA03FC4CEA040491F857
:1005E00003C0BCF1280F06D14FF0010C0CFA00FC3F
:1005F000C2F814C00AE091F803C0BCF1480F05D15D
:100600004FF0010C0CFA00FCC2F810C0401C082886
:10061000D1D31460B1F800C0BCF1FF0F34DD5468D1
:1006200000202EE000F1080C4FF0010808FA0CF34E
:10063000B1F800C00CEA03069E4221D183004FF0BE
:100640000F0C0CFA03F7BC4305FA03FC4CEA040454
:1006500091F803C0BCF1280F05D100F1080C08FA8D
:100660000CF8C2F8148091F803C0BCF1480F07D110
:1006700000F1080C4FF0010808FA0CF8C2F81080DD
:10068000401C0828CED35460BDE8F08108B5012194
:10069000082000F06DF80121042000F069F840F214
:1006A0000240ADF8000010208DF8030003208DF803
:1006B000020069460548FFF75EFF4FF48870ADF809
:1006C000000069460248FFF756FF08BD000C0140D4
:1006D00000080140416170470161704700BFFEE7BB
:1006E00000BFFEE77047000070B5002100230F2215
:1006F000C47804B3154C246804F4E064C4F5E064E1
:10070000210AC1F10403CA40447804FA03F1847851
:100710001440214309010E4C0678A155047804F0D9
:100720001F050124AC4005786D11AD0005F1E025F1
:10073000C5F8004109E0047804F01F050124AC402D
:10074000044D0678761145F8264070BD0CED00E0AA
:1007500000E400E080E100E002490143024A116048
:10076000704700000000FA050CED00E07047000043
:1007700029B1064A92690243044B9A6104E0034A94
:1007800092698243014B9A61704700000010024059
:1007900030B500210022002400232D4D6D6805F0A6
:1007A0000C0121B1042905D0082923D105E0294DE8
:1007B000056022E0274D05601FE0254D6D6805F4BA
:1007C0007012234D6D6805F48034022505EB9242CA
:1007D0001CB9214D554305600BE01D4D6D6805F4B6
:1007E00000351DB11C4D5543056002E0194D5543C0
:1007F000056002E0174D056000BF00BF144D6D6835
:1008000005F0F0010909154D6B5C0568DD40456098
:100810000F4D6D6805F4E061090A104D6B5C456889
:10082000DD4085600A4D6D6805F46051C90A0B4DC5
:100830006B5C4568DD40C560054D6D6805F4404161
:10084000890B074D6B5CC568B5FBF3F5056130BDE1
:100850000010024000127A0000093D000000002054
:1008600010000020704710B500F002F810BD000025
:100870000CB50020019000903348006840F48030AF
:100880003149086000BF3048006800F40030009033
:100890000198401C0190009818B90198B0F5A06F1C
:1008A000F1D12948006800F4003010B10120009017
:1008B00001E0002000900098012843D123480068FF
:1008C00040F01000214908600846006820F003004D
:1008D00008600846006840F0020008601A48406856
:1008E000194948600846406848600846406840F436
:1008F000806048600846406820F47C1048600846E4
:10090000406840F4E81048600846006840F0807095
:10091000086000BF0C48006800F000700028F9D0A3
:100920000948406820F003000749486008464068CD
:1009300040F00200486000BF0348406800F00C002F
:100940000828F9D10CBD0000001002400020024030
:10095000042808D14FF0E021096941F004014FF06B
:10096000E022116107E04FF0E021096921F0040164
:100970004FF0E022116170477047000010B5134836
:10098000006840F0010011490860084640681049BD
:1009900008400E494860084600680E4908400B4967
:1009A00008600846006820F4802008600846406817
:1009B00020F4FE0048604FF41F008860FFF753FFEB
:1009C0004FF000600449086010BD000000100240B4
:1009D0000000FFF8FFFFF6FE08ED00E010B540F262
:1009E0002551254800F05AF810B3234800F012F9B9
:1009F000C4B22248008800F40040C8B91F480088EB
:100A000000F4804060B10A2C03D000201B4908800C
:100A100020E01A48008840F400401849088019E096
:100A20000D2C06D11548008840F4804013490880F9
:100A300010E012480088C0F30D0011490C540F4813
:100A40000088401C0D49088008460088C72801DD41
:100A50000020088040F22441074800F01FF850B100
:100A6000054800880448001D00880448008840F4B8
:100A700000400249088010BD003801401C000020E1
:100A80003400002021B1828942F40052828104E0C6
:100A900082894DF6FF731A408281704770B5024615
:100AA000002400230025002040F66A16B14200D140
:100AB00000BFC1F3421501F01F03012606FA03F33C
:100AC000012D02D19689334006E0022D02D1168A0B
:100AD000334001E0968A33400C12012606FA04F4F2
:100AE0001688344013B10CB1012000E0002070BD25
:100AF000F0B50346002400260025002040F66A17C2
:100B0000B94200D100BF1846C1F3421401F01F06DC
:100B1000012707FA06F5012C01D10C3004E0022C64
:100B200001D1103000E014301AB107682F4307607C
:100B300002E00768AF430760F0BD00002DE9F04711
:100B400086B005460E460024A24600BFA1460027F7
:100B5000B08900B100BF2F462C8A4CF6FF700440CC
:100B6000F08804432C82AC894EF6F3100440B08820
:100B700031890843718908430443AC81AC8A4FF63C
:100B8000FF400440B0890443AC8201A8FFF700FE97
:100B90001F48874202D1DDF810A001E0DDF80CA06B
:100BA000A88900F4004040B10AEBCA0000EB0A102B
:100BB00031684900B0FBF1F807E00AEBCA0000EB2E
:100BC0000A1031688900B0FBF1F86420B8FBF0F03E
:100BD00004012009642101FB1089A88900F4004068
:100BE00040B1322000EBC900B0FBF1F000F007008B
:100BF000044308E0322000EB09106421B0FBF1F05F
:100C000000F00F0004432C8106B0BDE8F08700001F
:100C10000038014001468888C0F30800704700BFD3
:100C2000FEE700BF7047000010B56FF00400FFF74B
:100C30008FFE0A4800680A49B0FBF1F009490870C4
:100C40000846007800EB4001C1EBC0104FF6FF7181
:100C500001EAC0000449088010BD00002000002007
:100C600000127A0014000020160000200146114AEC
:100C700012884A434FF0E0235A6100229A611A46D3
:100C8000126942F001021A6100BF4FF0E0221069C0
:100C900000F001021AB100F48032002AF5D04FF0C2
:100CA000E022126922F001024FF0E0231A610022D3
:100CB0009A617047160000200146114A12784A4393
:100CC0004FF0E0235A6100229A611A46126942F0FD
:100CD00001021A6100BF4FF0E022106900F001022A
:100CE0001AB100F48032002AF5D04FF0E0221269E8
:100CF00022F001024FF0E0231A6100229A6170474E
:100D00001400002000BF054A128802F04002002AA9
:100D1000F9D0C2B2014B1B1D1A8070470038014048
:100D2000FFF782FFFFF7B2FCFFF70AFC4FF4165003
:100D300000F054F84FF4A060FFF70EFD01201B49AE
:100D400008601B49C1F8A8012FE01A48008800F488
:100D5000004050B3184919A0FFF75EFA1AA11648CF
:100D6000FFF7C3FA68B14FF480611A48FFF7B2FC8D
:100D700002211848FFF7AEFC10211748FFF7ACFC22
:100D80000CE04FF480611348FFF7A6FC02211148E4
:100D9000FFF7A2FC10211048FFF79CFCC821064871
:100DA000FFF7B5FA002003490880CEE7848121428D
:100DB000008021421C00002034000020BDD3CAD591
:100DC000A3BA25730A000000B4F2BFAA6C656431AF
:100DD00000000000000C01400008014010B586B082
:100DE0000446012144F20400FFF7C2FC4FF40070F6
:100DF000ADF8140003208DF8160018208DF81700A8
:100E000005A91F48FFF7B7FB4FF48060ADF8140049
:100E100004208DF8170005A91948FFF7ACFB252021
:100E20008DF8000003208DF801008DF802000120EC
:100E30008DF803006846FFF757FC01940020ADF8D9
:100E40000800ADF80A00ADF80C00ADF810000C2059
:100E5000ADF80E0001A90B48FFF770FE012240F229
:100E600025510848FFF744FE012240F2244105487D
:100E7000FFF73EFE01210348FFF704FE06B010BD58
:100E80000008014000380140A80E000800000020C2
:100E9000340000006C010008DC0E00083400002063
:100EA0002C07000088010008000000000102030474
:100EB00001020304060708090204060800000000F6
:100EC000000000000000000000A24A040000000032
:0C0ED000000000000102030406070809EE
:0400000508000131BD
:00000001FF
