:020000040800F2
:1000000090060020D5010008850700087D0700083C
:10001000810700087D040008FD0B000800000000B7
:1000200000000000000000000000000005090008BA
:100030001D060008000000000D080008190A00084D
:10004000EF010008EF010008EF010008EF010008D0
:10005000EF010008EF010008EF010008EF010008C0
:10006000EF010008EF010008EF010008EF010008B0
:10007000EF010008EF010008EF010008EF010008A0
:10008000EF010008EF010008EF010008EF01000890
:10009000EF010008EF010008EF010008EF01000880
:1000A000EF010008EF010008EF010008EF01000870
:1000B000EF010008EF010008EF010008EF01000860
:1000C000EF010008EF010008EF010008EF01000850
:1000D000EF010008EF010008EF010008EF01000840
:1000E000EF010008EF010008EF010008EF01000830
:1000F000EF010008EF010008EF010008EF01000820
:10010000EF010008EF010008EF010008EF0100080F
:10011000EF010008EF010008EF010008EF010008FF
:10012000EF010008EF010008EF010008EF010008EF
:1001300000F002F800F03FF80AA090E8000C8244BA
:100140008344AAF10107DA4501D100F034F8AFF297
:10015000090EBAE80F0013F0010F18BFFB1A43F0A5
:1001600001031847F80C0000180D0000103A24BFD6
:1001700078C878C1FAD8520724BF30C830C144BF0C
:1001800004680C607047000000230024002500264E
:10019000103A28BF78C1FBD8520728BF30C148BFEA
:1001A0000B607047642900F07F80002070471FB506
:1001B0001FBD10B510BD00F02EF91146FFF7F7FF77
:1001C00000F08EFD00F04CF903B4FFF7F2FF03BC22
:1001D00000F016FD0948804709480047FEE7FEE7A2
:1001E000FEE7FEE7FEE7FEE7FEE7FEE7FEE7FEE7E7
:1001F00004480549054A064B704700001D0A0008DF
:10020000310100089000002090060020900200209C
:1002100090020020704700000FB41CB5074B06AADF
:100220007B4469460090059800F0DDF8002069469F
:1002300000F0ECF81CBC5DF814FB0000E9010000C4
:100240002DE9F0410E460446002020622046E16878
:10025000884730B3252805D0D4E901219047206A8A
:10026000401CF2E7E168204600278847050018D0C7
:10027000A5F14100192802D820354FF40067324615
:10028000294620462760FFF78DFF40B1012804D0A2
:10029000F61D26F007060836D8E7361DD6E72846AD
:1002A000DAE7206ABDE8F0812DE9F0410646002436
:1002B00010687529314616A510D0AFF300800028CC
:1002C00002DA404213A507E031688A0701D512A57A
:1002D00002E0490704D511A5012401E0AFF3008035
:1002E00000210A2206F1240709E0B0FBF2FCB0FB72
:1002F000F2F302FB1C00303078541846491C0028E9
:10030000F3D123462A463046BDE8F04100F00CB850
:10031000000000002D0000002B0000002000000065
:1003200070477047704770472DE9F0470D46994672
:100330009246044600F124080168880604D5E06965
:1003400021F01001216000E00120A84201DD471BDF
:1003500000E00027A1697A1902EB0900081AA061E0
:100360002078C00602D42046AFF30080002608E0C3
:10037000D4E901211AF806009047206A401C761C37
:1003800020624E45F4DB2078C0060AD52046AFF344
:10039000008006E0D4E9012130209047206A401C0B
:1003A0002062381EA7F10107F4DC07E0D4E901213F
:1003B00018F805009047206A401C2062281EA5F10D
:1003C0000105F3DC2046AFF300802078000602D55B
:1003D0000220BDE8F0870120FBE7000001694A1C0C
:1003E00002610878704700B58FB0CDE90131002176
:1003F000059105497944CDE9031011466846FFF798
:100400001FFF0FB000BD0000E5FFFFFF0A6802F804
:10041000010B0A607047754600F02CF8AE460500E7
:100420006946534620F00700854618B020B5FFF70F
:10043000DFFEBDE820404FF000064FF000074FF010
:1004400000084FF0000B21F00701AC46ACE8C009F2
:10045000ACE8C009ACE8C009ACE8C0098D467047FB
:1004600010B50446AFF300802046BDE81040FFF70A
:10047000ABBE0000004870473000002000BFFEE720
:1004800010B51648006820F00F00144908600846AF
:10049000006840F00800086004E0601CC4B201205D
:1004A00000F0F8FB0E48006808B1642CF5DB642C02
:1004B00001DB012010BD002404E0601CC4B2012057
:1004C00000F0E8FB0648006808B9642CF5DB642CF2
:1004D00001DB0120EEE70020ECE70000000801400E
:1004E0000001214210B504E0601CC4B2012000F0FC
:1004F000D1FB0D48006808B1642CF5DB002404E052
:10050000601CC4B2012000F0C5FB0748006808B9B0
:10051000642CF5DB282000F0BDFB0348006808B11F
:10052000012010BD0020FCE70001214270B500252C
:10053000002400BF06E06006040EFFF7D3FF04436B
:10054000681CC5B2082DF6DB204670BD7CB505469B
:100550000E4600F029F8FFF793FF08BB002405E0E2
:10056000FFF7E4FF0DF80400601CC4B2052CF7DBB4
:100570009DF800009DF8011008449DF80210084401
:100580009DF8031008449DF80410884206D19DF898
:10059000000028709DF80200307003E001207CBD4F
:1005A0000120FCE70020FAE710B50C48006820F0B5
:1005B0000F000A4908600846006840F00300086020
:1005C000002007490860142000F03EFB0120054987
:1005D000C1F880011E2000F05DFB10BD0008014045
:1005E000800121420000214208B50121042000F0D1
:1005F0000FF90120ADF8000003208DF80200102053
:100600008DF803006946044800F009F8FFF7CCFFB5
:10061000FFF736FF08BD00000008014070472DE9D4
:10062000F041024600250026002000230024002778
:1006300091F803C00CF00F0591F803C00CF0100CFA
:10064000BCF1000F03D091F802C04CEA050591F807
:1006500000C0BCF1000F31D0146800202BE04FF037
:10066000010C0CFA00F3B1F800C00CEA03069E423C
:1006700020D183004FF00F0C0CFA03F7BC4305FAAE
:1006800003FC4CEA040491F803C0BCF1280F06D126
:100690004FF0010C0CFA00FCC2F814C00AE091F80B
:1006A00003C0BCF1480F05D14FF0010C0CFA00FC5F
:1006B000C2F810C0401C0828D1D31460B1F800C0A3
:1006C000BCF1FF0F34DD546800202EE000F1080C6F
:1006D0004FF0010808FA0CF3B1F800C00CEA030669
:1006E0009E4221D183004FF00F0C0CFA03F7BC435C
:1006F00005FA03FC4CEA040491F803C0BCF1280F8E
:1007000005D100F1080C08FA0CF8C2F8148091F831
:1007100003C0BCF1480F07D100F1080C4FF00108ED
:1007200008FA0CF8C2F81080401C0828CED3546098
:10073000BDE8F08108B50121082000F069F8012129
:10074000042000F065F840F20240ADF800001020EF
:100750008DF8030003208DF8020069460548FFF775
:100760005EFF4FF48870ADF8000069460248FFF75D
:1007700056FF08BD000C01400008014000BFFEE725
:1007800000BFFEE77047000070B5002100230F2274
:10079000C47804B3154C246804F4E064C4F5E06440
:1007A000210AC1F10403CA40447804FA03F18478B1
:1007B0001440214309010E4C0678A155047804F039
:1007C0001F050124AC4005786D11AD0005F1E02551
:1007D000C5F8004109E0047804F01F050124AC408D
:1007E000044D0678761145F8264070BD0CED00E00A
:1007F00000E400E080E100E002490143024A1160A8
:10080000704700000000FA050CED00E070470000A2
:1008100029B1064A92690243044B9A6104E0034AF3
:1008200092698243014B9A617047000000100240B8
:1008300030B500210022002400232D4D6D6805F005
:100840000C0121B1042905D0082923D105E0294D47
:10085000056022E0274D05601FE0254D6D6805F419
:100860007012234D6D6805F48034022505EB924229
:100870001CB9214D554305600BE01D4D6D6805F415
:1008800000351DB11C4D5543056002E0194D55431F
:10089000056002E0174D056000BF00BF144D6D6894
:1008A00005F0F0010909154D6B5C0568DD404560F8
:1008B0000F4D6D6805F4E061090A104D6B5C4568E9
:1008C000DD4085600A4D6D6805F46051C90A0B4D25
:1008D0006B5C4568DD40C560054D6D6805F44041C1
:1008E000890B074D6B5CC568B5FBF3F5056130BD41
:1008F0000010024000127A0000093D0000000020B4
:1009000010000020704710B500F002F810BD000084
:100910000CB50020019000903348006840F480300E
:100920003149086000BF3048006800F40030009092
:100930000198401C0190009818B90198B0F5A06F7B
:10094000F1D12948006800F4003010B10120009076
:1009500001E0002000900098012843D1234800685E
:1009600040F01000214908600846006820F00300AC
:1009700008600846006840F0020008601A484068B5
:10098000194948600846406848600846406840F495
:10099000806048600846406820F47C104860084643
:1009A000406840F4E81048600846006840F08070F5
:1009B000086000BF0C48006800F000700028F9D003
:1009C0000948406820F0030007494860084640682D
:1009D00040F00200486000BF0348406800F00C008F
:1009E0000828F9D10CBD0000001002400020024090
:1009F000042808D14FF0E021096941F004014FF0CB
:100A0000E022116107E04FF0E021096921F00401C3
:100A10004FF0E022116170477047000010B5134895
:100A2000006840F00100114908600846406810491C
:100A300008400E494860084600680E4908400B49C6
:100A400008600846006820F4802008600846406876
:100A500020F4FE0048604FF41F008860FFF753FF4A
:100A60004FF000600449086010BD00000010024013
:100A70000000FFF8FFFFF6FE08ED00E021B18289DB
:100A800042F40052828104E082894DF6FF731A40DD
:100A900082817047F0B5034600240026002500201F
:100AA00040F66A17B94200D100BF1846C1F342149C
:100AB00001F01F06012707FA06F5012C01D10C30C1
:100AC00004E0022C01D1103000E014301AB10768A4
:100AD0002F43076002E00768AF430760F0BD0000E6
:100AE0002DE9F04786B005460E460024A24600BF19
:100AF000A1460027B08900B100BF2F462C8A4CF6D2
:100B0000FF700440F08804432C82AC894EF6F31049
:100B10000440B08831890843718908430443AC819B
:100B2000AC8A4FF6FF400440B0890443AC8201A870
:100B3000FFF77EFE1F48874202D1DDF810A001E0DA
:100B4000DDF80CA0A88900F4004040B10AEBCA000F
:100B500000EB0A1031684900B0FBF1F807E00AEB3E
:100B6000CA0000EB0A1031688900B0FBF1F864207C
:100B7000B8FBF0F004012009642101FB1089A88969
:100B800000F4004040B1322000EBC900B0FBF1F0AE
:100B900000F00700044308E0322000EB0910642154
:100BA000B0FBF1F000F00F0004432C8106B0BDE86B
:100BB000F08700000038014038B50446224604A101
:100BC0006846FFF729FB684600F004F838BD0000CE
:100BD000256400000BE000BF0749098801F04001CF
:100BE0000029F9D00178044A121D1180401C0178B7
:100BF0000029F0D1704700000038014000BFFEE737
:100C000000BF704710B56FF00400FFF7F1FE0A480F
:100C100000680A49B0FBF1F00949087008460078FD
:100C200000EB4001C1EBC0104FF6FF7101EAC000BC
:100C30000449088010BD00001C00002000127A004A
:100C400014000020160000200146114A12884A4371
:100C50004FF0E0235A6100229A611A46126942F06D
:100C600001021A6100BF4FF0E022106900F001029A
:100C70001AB100F48032002AF5D04FF0E022126958
:100C800022F001024FF0E0231A6100229A617047BE
:100C9000160000200146114A12784A434FF0E02323
:100CA0005A6100229A611A46126942F001021A61E1
:100CB00000BF4FF0E022106900F001021AB100F409
:100CC0008032002AF5D04FF0E022126922F00102B2
:100CD0004FF0E0231A6100229A617047140000204F
:100CE000FFF790FFFFF726FDFFF77EFC4FF416504D
:100CF00000F05EF84FF4A060FFF77EFDFFF774FC94
:100D0000164908700846007820B115A0FFF762FF69
:100D100000BFFEE721E017491748FFF717FC0F490E
:100D200008700846007888B914A0FFF753FF1248EE
:100D30000078FFF741FF15A0FFF74CFF0D48007842
:100D4000FFF73AFF15A0FFF745FF02E014A0FFF7F9
:100D500041FF4FF4FA60FFF777FFDCE71A0000204D
:100D60004448543131B3F5CABCBBAFCAA7B0DC218B
:100D70000D0A0000190000201800002054656D7055
:100D8000657261747572653A20000000432C20483A
:100D9000756D69646974793A20000000250D0A00B8
:100DA000CEDEB7A8B6C1C8A1CAFDBEDD210D0A00BE
:100DB00010B586B00446012144F20400FFF728FD77
:100DC0004FF40070ADF8140003208DF816001820C1
:100DD0008DF8170005A91F48FFF721FC4FF480602C
:100DE000ADF8140004208DF8170005A91948FFF785
:100DF00016FC25208DF8000003208DF801008DF8E9
:100E0000020001208DF803006846FFF7BDFC019445
:100E10000020ADF80800ADF80A00ADF80C00ADF800
:100E200010000C20ADF80E0001A90B48FFF758FE8A
:100E3000012240F225510848FFF72CFE012240F222
:100E400024410548FFF726FE01210348FFF716FE5F
:100E500006B010BD00080140003801407C0E0008BB
:100E600000000020300000006C010008AC0E0008FB
:100E7000300000206006000088010008000000002B
:100E8000010203040102030406070809020406081C
:100E9000000000000000000000A24A040000000062
:0C0EA0000000000001020304060708091E
:0400000508000131BD
:00000001FF
